{
  "contractName": "BaseContract",
  "abi": [
    {
      "inputs": [],
      "stateMutability": "nonpayable",
      "type": "constructor"
    },
    {
      "anonymous": false,
      "inputs": [
        {
          "indexed": false,
          "internalType": "address",
          "name": "from",
          "type": "address"
        },
        {
          "indexed": false,
          "internalType": "address",
          "name": "to",
          "type": "address"
        },
        {
          "indexed": false,
          "internalType": "uint256",
          "name": "price",
          "type": "uint256"
        }
      ],
      "name": "propertyBought",
      "type": "event"
    },
    {
      "anonymous": false,
      "inputs": [
        {
          "indexed": false,
          "internalType": "address",
          "name": "",
          "type": "address"
        },
        {
          "indexed": false,
          "internalType": "uint256",
          "name": "",
          "type": "uint256"
        },
        {
          "indexed": false,
          "internalType": "string",
          "name": "",
          "type": "string"
        }
      ],
      "name": "propertyDeployed",
      "type": "event"
    },
    {
      "inputs": [],
      "name": "buyer",
      "outputs": [
        {
          "internalType": "address",
          "name": "",
          "type": "address"
        }
      ],
      "stateMutability": "view",
      "type": "function",
      "constant": true
    },
    {
      "inputs": [],
      "name": "cancel",
      "outputs": [
        {
          "internalType": "bool",
          "name": "",
          "type": "bool"
        }
      ],
      "stateMutability": "view",
      "type": "function",
      "constant": true
    },
    {
      "inputs": [],
      "name": "minPrice",
      "outputs": [
        {
          "internalType": "uint256",
          "name": "",
          "type": "uint256"
        }
      ],
      "stateMutability": "view",
      "type": "function",
      "constant": true
    },
    {
      "inputs": [],
      "name": "owner",
      "outputs": [
        {
          "internalType": "address",
          "name": "",
          "type": "address"
        }
      ],
      "stateMutability": "view",
      "type": "function",
      "constant": true
    },
    {
      "inputs": [],
      "name": "paused",
      "outputs": [
        {
          "internalType": "bool",
          "name": "",
          "type": "bool"
        }
      ],
      "stateMutability": "view",
      "type": "function",
      "constant": true
    },
    {
      "inputs": [],
      "name": "price",
      "outputs": [
        {
          "internalType": "uint256",
          "name": "",
          "type": "uint256"
        }
      ],
      "stateMutability": "view",
      "type": "function",
      "constant": true
    },
    {
      "inputs": [],
      "name": "propertyCode",
      "outputs": [
        {
          "internalType": "string",
          "name": "",
          "type": "string"
        }
      ],
      "stateMutability": "view",
      "type": "function",
      "constant": true
    },
    {
      "inputs": [],
      "name": "seller",
      "outputs": [
        {
          "internalType": "address",
          "name": "",
          "type": "address"
        }
      ],
      "stateMutability": "view",
      "type": "function",
      "constant": true
    },
    {
      "inputs": [
        {
          "internalType": "uint256",
          "name": "_price",
          "type": "uint256"
        }
      ],
      "name": "changePrice",
      "outputs": [],
      "stateMutability": "nonpayable",
      "type": "function"
    },
    {
      "inputs": [
        {
          "internalType": "uint256",
          "name": "_minPrice",
          "type": "uint256"
        }
      ],
      "name": "changeMinPrice",
      "outputs": [],
      "stateMutability": "nonpayable",
      "type": "function"
    },
    {
      "inputs": [
        {
          "internalType": "address",
          "name": "_seller",
          "type": "address"
        },
        {
          "internalType": "uint256",
          "name": "_price",
          "type": "uint256"
        },
        {
          "internalType": "uint256",
          "name": "_minPrice",
          "type": "uint256"
        },
        {
          "internalType": "string",
          "name": "_propertyCode",
          "type": "string"
        }
      ],
      "name": "addProperty",
      "outputs": [],
      "stateMutability": "nonpayable",
      "type": "function"
    },
    {
      "inputs": [
        {
          "internalType": "address",
          "name": "_buyer",
          "type": "address"
        }
      ],
      "name": "signContract",
      "outputs": [],
      "stateMutability": "payable",
      "type": "function",
      "payable": true
    }
  ],
  "bytecode": "0x60806040526006805461ffff1916905534801561001b57600080fd5b506108458061002b6000396000f3fe6080604052600436106100a75760003560e01c80638da5cb5b116100645780638da5cb5b1461018a5780639aff11ae146101aa578063a035b1fe146101ca578063a2b40d19146101ee578063e45be8eb1461020e578063ea8a1af01461022457600080fd5b806308551a53146100ac578063152e7021146100e95780635c975abb1461010b5780637150d8ae1461013557806379e93bf8146101555780638a2c8a5114610168575b600080fd5b3480156100b857600080fd5b506001546100cc906001600160a01b031681565b6040516001600160a01b0390911681526020015b60405180910390f35b3480156100f557600080fd5b506101096101043660046105ad565b610243565b005b34801561011757600080fd5b506006546101259060ff1681565b60405190151581526020016100e0565b34801561014157600080fd5b506002546100cc906001600160a01b031681565b610109610163366004610682565b6102f1565b34801561017457600080fd5b5061017d6103fe565b6040516100e091906106a4565b34801561019657600080fd5b506000546100cc906001600160a01b031681565b3480156101b657600080fd5b506101096101c53660046106f9565b61048c565b3480156101d657600080fd5b506101e060055481565b6040519081526020016100e0565b3480156101fa57600080fd5b506101096102093660046106f9565b6104b7565b34801561021a57600080fd5b506101e060045481565b34801561023057600080fd5b5060065461012590610100900460ff1681565b6000546001600160a01b0316331461025a57600080fd5b8183101561026757600080fd5b600180546001600160a01b0319166001600160a01b03861617905560058390556004829055805161029f9060039060208401906104e2565b506001546005546040517f3da108fc393293f2739056eefad245de4a09649e71fbce2b6136f7cc5bb1a3a4926102e3926001600160a01b039091169160039061074d565b60405180910390a150505050565b34600554146103465760405162461bcd60e51b815260206004820152601f60248201527f6e6f7420656e6f75676820746f2062757920746869732070726f706572747900604482015260640160405180910390fd5b60065460ff161561035657600080fd5b600280546001600160a01b038084166001600160a01b0319909216919091179091556001546040519116903480156108fc02916000818181858888f193505050501580156103a8573d6000803e3d6000fd5b50600254600154600554604080516001600160a01b03948516815293909216602084015282820152517fe98ef6adc403df0ffb0dbdd06534bc3d0705f580a6043f32dd7e68e8130c78119181900360600190a150565b6003805461040b90610712565b80601f016020809104026020016040519081016040528092919081815260200182805461043790610712565b80156104845780601f1061045957610100808354040283529160200191610484565b820191906000526020600020905b81548152906001019060200180831161046757829003601f168201915b505050505081565b6001546001600160a01b031633146104a357600080fd5b8060055410156104b257600080fd5b600455565b6001546001600160a01b031633146104ce57600080fd5b6004548110156104dd57600080fd5b600555565b8280546104ee90610712565b90600052602060002090601f0160209004810192826105105760008555610556565b82601f1061052957805160ff1916838001178555610556565b82800160010185558215610556579182015b8281111561055657825182559160200191906001019061053b565b50610562929150610566565b5090565b5b808211156105625760008155600101610567565b80356001600160a01b038116811461059257600080fd5b919050565b634e487b7160e01b600052604160045260246000fd5b600080600080608085870312156105c357600080fd5b6105cc8561057b565b93506020850135925060408501359150606085013567ffffffffffffffff808211156105f757600080fd5b818701915087601f83011261060b57600080fd5b81358181111561061d5761061d610597565b604051601f8201601f19908116603f0116810190838211818310171561064557610645610597565b816040528281528a602084870101111561065e57600080fd5b82602086016020830137600060208483010152809550505050505092959194509250565b60006020828403121561069457600080fd5b61069d8261057b565b9392505050565b600060208083528351808285015260005b818110156106d1578581018301518582016040015282016106b5565b818111156106e3576000604083870101525b50601f01601f1916929092016040019392505050565b60006020828403121561070b57600080fd5b5035919050565b600181811c9082168061072657607f821691505b6020821081141561074757634e487b7160e01b600052602260045260246000fd5b50919050565b6001600160a01b03841681526020808201849052606060408301528254600091908290600181811c908281168061078557607f831692505b8583108114156107a357634e487b7160e01b85526022600452602485fd5b60608801839052608088018180156107c257600181146107d3576107fe565b60ff198616825287820196506107fe565b60008b81526020902060005b868110156107f8578154848201529085019089016107df565b83019750505b50949b9a505050505050505050505056fea2646970667358221220b2cc3c010c6e189bd628181b6eb6036aad928819e8d584c67d3b33477fd974d564736f6c634300080a0033",
  "immutableReferences": {},
  "source": "pragma solidity ^0.8.10;\r\n\r\ncontract BaseContract { \r\n\r\n    address public owner;   // us :D\r\n\r\n    address public seller;\r\n    address public buyer;\r\n    string public propertyCode;\r\n\r\n    uint256 public minPrice ; \r\n    uint256 public price;\r\n\r\n    bool public paused = false;\r\n    bool public cancel = false;\r\n\r\n    event propertyBought(address from,address to,uint256 price);\r\n\r\n    event propertyDeployed(address ,uint256, string );\r\n\r\n    constructor() {\r\n        owner == msg.sender;\r\n    }\r\n\r\n    /*constructor(address payable _seller,uint256 _price,uint256 _minPrice ,string memory _propertyCode){\r\n\r\n        require( _price >= _minPrice );\r\n\r\n        owner = msg.sender;\r\n        seller = _seller;\r\n        price = _price;\r\n        minPrice = _minPrice;\r\n        propertyCode = _propertyCode;\r\n    \r\n        emit propertyDeployed(seller, price, propertyCode);\r\n    }\r\n*/\r\n\r\n    modifier  onlyOwner{\r\n        require(\r\n            msg.sender == owner\r\n            );\r\n        _;\r\n    }\r\n\r\n    modifier  onlySeller{\r\n        require(\r\n            msg.sender == seller\r\n            );\r\n        _;\r\n    }\r\n    \r\n\r\n    modifier  buyRequirement{\r\n        require(\r\n            price == msg.value,\r\n            \"not enough to buy this property\"\r\n            );\r\n        _;\r\n    }\r\n\r\n    modifier  notPaused(){\r\n        require(\r\n            paused == false\r\n            );\r\n        _;\r\n    }\r\n\r\n\r\n    function changePrice(uint256 _price) onlySeller public{\r\n        require( _price >= minPrice );\r\n        price = _price ;\r\n    }\r\n    \r\n\r\n    function changeMinPrice(uint256 _minPrice) onlySeller public{\r\n        require( price >= _minPrice );\r\n        minPrice = _minPrice ;\r\n    }\r\n\r\n\r\n     function addProperty(address _seller,uint256 _price,uint256 _minPrice ,string memory _propertyCode) public onlyOwner{\r\n\r\n        require( _price >= _minPrice );\r\n\r\n        seller = _seller;\r\n        price = _price;\r\n        minPrice = _minPrice;\r\n        propertyCode = _propertyCode;\r\n       \r\n        emit propertyDeployed(seller, price, propertyCode);\r\n    }\r\n\r\n\r\n\r\n    function signContract(address _buyer) payable public buyRequirement notPaused {\r\n        buyer = _buyer;\r\n        //(bool sent, bytes memory data) = payable(seller).call{value: msg.value}(\"\");\r\n        payable(seller).transfer(msg.value);\r\n        //require(sent,\"not sent !\");\r\n        emit propertyBought(buyer, seller, price);\r\n    }\r\n}",
  "sourcePath": "C:\\Users\\dell\\Desktop\\OverChain Contract\\contracts\\Base.sol",
  "compiler": {
    "name": "solc",
    "version": "0.8.10+commit.fc410830.Emscripten.clang"
  },
  "schemaVersion": "3.4.4",
  "updatedAt": "2022-01-07T21:23:29.863Z",
  "networkType": "ethereum",
  "devdoc": {
    "kind": "dev",
    "methods": {},
    "version": 1
  },
  "userdoc": {
    "kind": "user",
    "methods": {},
    "version": 1
  }
}