{
  "contractName": "BaseContract",
  "abi": [
    {
      "inputs": [
        {
          "internalType": "address payable",
          "name": "_propertyOwner",
          "type": "address"
        },
        {
          "internalType": "uint256",
          "name": "_price",
          "type": "uint256"
        },
        {
          "internalType": "string",
          "name": "_propertyCode",
          "type": "string"
        }
      ],
      "stateMutability": "nonpayable",
      "type": "constructor"
    },
    {
      "anonymous": false,
      "inputs": [
        {
          "indexed": false,
          "internalType": "address",
          "name": "from",
          "type": "address"
        },
        {
          "indexed": false,
          "internalType": "address",
          "name": "to",
          "type": "address"
        },
        {
          "indexed": false,
          "internalType": "uint256",
          "name": "price",
          "type": "uint256"
        }
      ],
      "name": "propertyBought",
      "type": "event"
    },
    {
      "inputs": [],
      "name": "activated",
      "outputs": [
        {
          "internalType": "bool",
          "name": "",
          "type": "bool"
        }
      ],
      "stateMutability": "view",
      "type": "function"
    },
    {
      "inputs": [],
      "name": "bought",
      "outputs": [
        {
          "internalType": "bool",
          "name": "",
          "type": "bool"
        }
      ],
      "stateMutability": "view",
      "type": "function"
    },
    {
      "inputs": [],
      "name": "owner",
      "outputs": [
        {
          "internalType": "address",
          "name": "",
          "type": "address"
        }
      ],
      "stateMutability": "view",
      "type": "function"
    },
    {
      "inputs": [],
      "name": "paused",
      "outputs": [
        {
          "internalType": "bool",
          "name": "",
          "type": "bool"
        }
      ],
      "stateMutability": "view",
      "type": "function"
    },
    {
      "inputs": [],
      "name": "price",
      "outputs": [
        {
          "internalType": "uint256",
          "name": "",
          "type": "uint256"
        }
      ],
      "stateMutability": "view",
      "type": "function"
    },
    {
      "inputs": [],
      "name": "propertyCode",
      "outputs": [
        {
          "internalType": "string",
          "name": "",
          "type": "string"
        }
      ],
      "stateMutability": "view",
      "type": "function"
    },
    {
      "inputs": [],
      "name": "propertyOwner",
      "outputs": [
        {
          "internalType": "address",
          "name": "",
          "type": "address"
        }
      ],
      "stateMutability": "view",
      "type": "function"
    },
    {
      "inputs": [
        {
          "internalType": "uint256",
          "name": "_price",
          "type": "uint256"
        }
      ],
      "name": "changePrice",
      "outputs": [],
      "stateMutability": "nonpayable",
      "type": "function"
    },
    {
      "inputs": [],
      "name": "buyProperty",
      "outputs": [],
      "stateMutability": "payable",
      "type": "function"
    },
    {
      "inputs": [],
      "name": "deActivate",
      "outputs": [],
      "stateMutability": "nonpayable",
      "type": "function"
    },
    {
      "inputs": [],
      "name": "pauseContract",
      "outputs": [],
      "stateMutability": "nonpayable",
      "type": "function"
    },
    {
      "inputs": [],
      "name": "unPauseContract",
      "outputs": [],
      "stateMutability": "nonpayable",
      "type": "function"
    },
    {
      "inputs": [
        {
          "internalType": "uint256",
          "name": "_price",
          "type": "uint256"
        }
      ],
      "name": "reSale",
      "outputs": [],
      "stateMutability": "nonpayable",
      "type": "function"
    }
  ],
  "bytecode": "0x60806040526004805462ffffff19166201000017905534801561002157600080fd5b5060405161088138038061088183398101604081905261004091610139565b60008054336001600160a01b031991821617909155600180549091166001600160a01b0385161790556003829055805161008190600290602084019061008a565b5050505061026f565b82805461009690610234565b90600052602060002090601f0160209004810192826100b857600085556100fe565b82601f106100d157805160ff19168380011785556100fe565b828001600101855582156100fe579182015b828111156100fe5782518255916020019190600101906100e3565b5061010a92915061010e565b5090565b5b8082111561010a576000815560010161010f565b634e487b7160e01b600052604160045260246000fd5b60008060006060848603121561014e57600080fd5b83516001600160a01b038116811461016557600080fd5b60208581015160408701519295509350906001600160401b038082111561018b57600080fd5b818701915087601f83011261019f57600080fd5b8151818111156101b1576101b1610123565b604051601f8201601f19908116603f011681019083821181831017156101d9576101d9610123565b816040528281528a868487010111156101f157600080fd5b600093505b8284101561021357848401860151818501870152928501926101f6565b828411156102245760008684830101525b8096505050505050509250925092565b600181811c9082168061024857607f821691505b6020821081141561026957634e487b7160e01b600052602260045260246000fd5b50919050565b6106038061027e6000396000f3fe6080604052600436106100c25760003560e01c80638a2c8a511161007f578063a2b40d1911610059578063a2b40d19146101f2578063bac1520314610212578063f446c38f14610227578063ff895a621461024757600080fd5b80638a2c8a51146101745780638da5cb5b14610196578063a035b1fe146101ce57600080fd5b8063173b77e0146100c7578063186601ca146100e957806334976b9b1461011e578063439766ce14610138578063451a308f1461014d5780635c975abb14610155575b600080fd5b3480156100d357600080fd5b506100e76100e2366004610524565b61025c565b005b3480156100f557600080fd5b506004546101099062010000900460ff1681565b60405190151581526020015b60405180910390f35b34801561012a57600080fd5b506004546101099060ff1681565b34801561014457600080fd5b506100e76102c5565b6100e76102ed565b34801561016157600080fd5b5060045461010990610100900460ff1681565b34801561018057600080fd5b50610189610417565b604051610115919061053d565b3480156101a257600080fd5b506000546101b6906001600160a01b031681565b6040516001600160a01b039091168152602001610115565b3480156101da57600080fd5b506101e460035481565b604051908152602001610115565b3480156101fe57600080fd5b506100e761020d366004610524565b6104a5565b34801561021e57600080fd5b506100e76104db565b34801561023357600080fd5b506001546101b6906001600160a01b031681565b34801561025357600080fd5b506100e76104ff565b60045460ff16151560011461027057600080fd5b6001546001600160a01b0316331461028757600080fd5b60045462010000900460ff1615156001146102a157600080fd5b600454610100900460ff16156102b657600080fd5b6003556004805460ff19169055565b6001546001600160a01b031633146102dc57600080fd5b6004805461ff001916610100179055565b60045462010000900460ff16151560011461030757600080fd5b34600354111561035d5760405162461bcd60e51b815260206004820152601f60248201527f6e6f7420656e6f75676820746f2062757920746869732070726f706572747900604482015260640160405180910390fd5b600454610100900460ff161561037257600080fd5b6001546040516001600160a01b03909116903480156108fc02916000818181858888f193505050501580156103ab573d6000803e3d6000fd5b50600154604080516001600160a01b0390921682523360208301523482820152517fe98ef6adc403df0ffb0dbdd06534bc3d0705f580a6043f32dd7e68e8130c78119181900360600190a1600180546001600160a01b031916331781556004805460ff19169091179055565b6002805461042490610592565b80601f016020809104026020016040519081016040528092919081815260200182805461045090610592565b801561049d5780601f106104725761010080835404028352916020019161049d565b820191906000526020600020905b81548152906001019060200180831161048057829003601f168201915b505050505081565b60045462010000900460ff1615156001146104bf57600080fd5b6001546001600160a01b031633146104d657600080fd5b600355565b6001546001600160a01b031633146104f257600080fd5b6004805461ff0019169055565b6001546001600160a01b0316331461051657600080fd5b6004805462ff000019169055565b60006020828403121561053657600080fd5b5035919050565b600060208083528351808285015260005b8181101561056a5785810183015185820160400152820161054e565b8181111561057c576000604083870101525b50601f01601f1916929092016040019392505050565b600181811c908216806105a657607f821691505b602082108114156105c757634e487b7160e01b600052602260045260246000fd5b5091905056fea264697066735822122014d13180dc9c3e96dfb17a46ecd0bab92ba7de738e5264e3f9f8338b26ba76a764736f6c634300080a0033",
  "immutableReferences": {},
  "source": "pragma solidity ^0.8.10;\r\n\r\ncontract BaseContract { \r\n\r\n    address public owner;   // us :D\r\n\r\n    address public propertyOwner;\r\n   \r\n    string public propertyCode;\r\n\r\n    uint256 public price;\r\n\r\n    bool public bought = false;\r\n    bool public paused = false;\r\n    bool public activated = true;\r\n\r\n    event propertyBought(address from,address to,uint256 price);\r\n\r\n    constructor(address payable _propertyOwner,uint256 _price,string memory _propertyCode){\r\n        owner = msg.sender;\r\n        propertyOwner = _propertyOwner;\r\n        price = _price;\r\n        propertyCode = _propertyCode;\r\n    }\r\n\r\n\r\n\r\n    modifier  onlyPropertyOwner{\r\n        require(\r\n            propertyOwner == msg.sender\r\n           );\r\n        _;\r\n    }\r\n    \r\n\r\n    modifier  buyRequirement{\r\n        require(\r\n            price <= msg.value,\r\n            \"not enough to buy this property\"\r\n            );\r\n        _;\r\n\r\n\r\n\r\n    }\r\n\r\n    modifier  notPaused(){\r\n        require(\r\n            paused == false\r\n            );\r\n        _;\r\n    }\r\n\r\n    modifier isActivated() {\r\n        require(\r\n            activated == true\r\n        );\r\n        _;\r\n    }\r\n\r\n    modifier canReSale(){\r\n        require(\r\n            bought == true\r\n        );\r\n        _;\r\n    }\r\n\r\n\r\n    function changePrice(uint256 _price) isActivated onlyPropertyOwner public{\r\n        price = _price ;\r\n    }\r\n\r\n\r\n    function buyProperty() payable public isActivated buyRequirement notPaused {\r\n\r\n        payable(propertyOwner).transfer(msg.value);\r\n        \r\n        emit propertyBought(propertyOwner, msg.sender, msg.value);\r\n        \r\n        propertyOwner = msg.sender;\r\n        bought = true;\r\n    }\r\n\r\n\r\n    function deActivate() public onlyPropertyOwner {\r\n        activated = false;\r\n    }\r\n\r\n    function pauseContract() public onlyPropertyOwner{\r\n        paused = true;\r\n    }\r\n\r\n    function unPauseContract()public onlyPropertyOwner{\r\n        paused = false ; \r\n    }\r\n\r\n\r\n    // function to resale property\r\n    function reSale(uint256 _price) public canReSale onlyPropertyOwner isActivated notPaused{\r\n        price = _price;\r\n        bought = false;\r\n    }\r\n\r\n}",
  "sourcePath": "C:\\Users\\dell\\Desktop\\OverChain-Contracts\\Overchain-Contracts\\contracts\\Base.sol",
  "compiler": {
    "name": "solc",
    "version": "0.8.10+commit.fc410830.Emscripten.clang"
  },
  "schemaVersion": "3.4.4",
  "updatedAt": "2022-02-02T03:29:28.981Z",
  "devdoc": {
    "kind": "dev",
    "methods": {},
    "version": 1
  },
  "userdoc": {
    "kind": "user",
    "methods": {},
    "version": 1
  }
}