{
  "contractName": "BlackListeContract",
  "abi": [
    {
      "inputs": [
        {
          "internalType": "address payable",
          "name": "_propertyOwner",
          "type": "address"
        },
        {
          "internalType": "uint256",
          "name": "_price",
          "type": "uint256"
        },
        {
          "internalType": "string",
          "name": "_propertyCode",
          "type": "string"
        },
        {
          "internalType": "address[]",
          "name": "_blackAddresses",
          "type": "address[]"
        }
      ],
      "stateMutability": "nonpayable",
      "type": "constructor"
    },
    {
      "anonymous": false,
      "inputs": [
        {
          "indexed": false,
          "internalType": "address",
          "name": "from",
          "type": "address"
        },
        {
          "indexed": false,
          "internalType": "address",
          "name": "to",
          "type": "address"
        },
        {
          "indexed": false,
          "internalType": "uint256",
          "name": "price",
          "type": "uint256"
        }
      ],
      "name": "propertyBought",
      "type": "event"
    },
    {
      "inputs": [],
      "name": "activated",
      "outputs": [
        {
          "internalType": "bool",
          "name": "",
          "type": "bool"
        }
      ],
      "stateMutability": "view",
      "type": "function"
    },
    {
      "inputs": [],
      "name": "bought",
      "outputs": [
        {
          "internalType": "bool",
          "name": "",
          "type": "bool"
        }
      ],
      "stateMutability": "view",
      "type": "function"
    },
    {
      "inputs": [],
      "name": "owner",
      "outputs": [
        {
          "internalType": "address",
          "name": "",
          "type": "address"
        }
      ],
      "stateMutability": "view",
      "type": "function"
    },
    {
      "inputs": [],
      "name": "paused",
      "outputs": [
        {
          "internalType": "bool",
          "name": "",
          "type": "bool"
        }
      ],
      "stateMutability": "view",
      "type": "function"
    },
    {
      "inputs": [],
      "name": "price",
      "outputs": [
        {
          "internalType": "uint256",
          "name": "",
          "type": "uint256"
        }
      ],
      "stateMutability": "view",
      "type": "function"
    },
    {
      "inputs": [],
      "name": "propertyCode",
      "outputs": [
        {
          "internalType": "string",
          "name": "",
          "type": "string"
        }
      ],
      "stateMutability": "view",
      "type": "function"
    },
    {
      "inputs": [],
      "name": "propertyOwner",
      "outputs": [
        {
          "internalType": "address",
          "name": "",
          "type": "address"
        }
      ],
      "stateMutability": "view",
      "type": "function"
    },
    {
      "inputs": [
        {
          "internalType": "uint256",
          "name": "_price",
          "type": "uint256"
        }
      ],
      "name": "changePrice",
      "outputs": [],
      "stateMutability": "nonpayable",
      "type": "function"
    },
    {
      "inputs": [
        {
          "internalType": "address",
          "name": "_blackListedAddresses",
          "type": "address"
        }
      ],
      "name": "addAddressToBlackList",
      "outputs": [],
      "stateMutability": "nonpayable",
      "type": "function"
    },
    {
      "inputs": [
        {
          "internalType": "address",
          "name": "_blackListedAddresse",
          "type": "address"
        }
      ],
      "name": "removeAddressFromBlackList",
      "outputs": [],
      "stateMutability": "nonpayable",
      "type": "function"
    },
    {
      "inputs": [
        {
          "internalType": "address",
          "name": "_blackListedAddresses",
          "type": "address"
        }
      ],
      "name": "verifyAddress",
      "outputs": [
        {
          "internalType": "bool",
          "name": "",
          "type": "bool"
        }
      ],
      "stateMutability": "view",
      "type": "function"
    },
    {
      "inputs": [],
      "name": "buyProperty",
      "outputs": [],
      "stateMutability": "payable",
      "type": "function"
    },
    {
      "inputs": [],
      "name": "deActivate",
      "outputs": [],
      "stateMutability": "nonpayable",
      "type": "function"
    },
    {
      "inputs": [
        {
          "internalType": "uint256",
          "name": "_price",
          "type": "uint256"
        },
        {
          "internalType": "address[]",
          "name": "_blackAddresses",
          "type": "address[]"
        }
      ],
      "name": "reSale",
      "outputs": [],
      "stateMutability": "nonpayable",
      "type": "function"
    }
  ],
  "bytecode": "0x60806040526004805462ffffff1916620100001790553480156200002257600080fd5b5060405162000d4338038062000d438339810160408190526200004591620002da565b60008054336001600160a01b031991821617909155600180549091166001600160a01b03861617905560038390558151620000889060029060208501906200013f565b506004805460ff1916905560005b8151811015620000e257620000cd828281518110620000b957620000b9620003e0565b6020026020010151620000ed60201b60201c565b80620000d981620003f6565b91505062000096565b50505050506200045d565b6000546001600160a01b03163314806200011157506001546001600160a01b031633145b6200011b57600080fd5b6001600160a01b03166000908152600560205260409020805460ff19166001179055565b8280546200014d9062000420565b90600052602060002090601f016020900481019282620001715760008555620001bc565b82601f106200018c57805160ff1916838001178555620001bc565b82800160010185558215620001bc579182015b82811115620001bc5782518255916020019190600101906200019f565b50620001ca929150620001ce565b5090565b5b80821115620001ca5760008155600101620001cf565b6001600160a01b0381168114620001fb57600080fd5b50565b634e487b7160e01b600052604160045260246000fd5b604051601f8201601f191681016001600160401b03811182821017156200023f576200023f620001fe565b604052919050565b600082601f8301126200025957600080fd5b815160206001600160401b03821115620002775762000277620001fe565b8160051b6200028882820162000214565b9283528481018201928281019087851115620002a357600080fd5b83870192505b84831015620002cf578251620002bf81620001e5565b82529183019190830190620002a9565b979650505050505050565b60008060008060808587031215620002f157600080fd5b8451620002fe81620001e5565b60208681015160408801519296509450906001600160401b03808211156200032557600080fd5b818801915088601f8301126200033a57600080fd5b8151818111156200034f576200034f620001fe565b62000363601f8201601f1916850162000214565b8181528a858386010111156200037857600080fd5b60005b82811015620003985784810186015182820187015285016200037b565b82811115620003aa5760008684840101525b5060608a015190965093505080831115620003c457600080fd5b5050620003d48782880162000247565b91505092959194509250565b634e487b7160e01b600052603260045260246000fd5b60006000198214156200041957634e487b7160e01b600052601160045260246000fd5b5060010190565b600181811c908216806200043557607f821691505b602082108114156200045757634e487b7160e01b600052602260045260246000fd5b50919050565b6108d6806200046d6000396000f3fe6080604052600436106100dd5760003560e01c806397190ba11161007f578063b5d354c411610059578063b5d354c414610238578063f446c38f14610258578063fcb2cafc14610278578063ff895a62146102b157600080fd5b806397190ba1146101d4578063a035b1fe146101f4578063a2b40d191461021857600080fd5b8063451a308f116100bb578063451a308f146101535780635c975abb1461015b5780638a2c8a511461017a5780638da5cb5b1461019c57600080fd5b8063186601ca146100e257806334976b9b14610117578063371aafd814610131575b600080fd5b3480156100ee57600080fd5b506004546101029062010000900460ff1681565b60405190151581526020015b60405180910390f35b34801561012357600080fd5b506004546101029060ff1681565b34801561013d57600080fd5b5061015161014c3660046106af565b6102c6565b005b610151610313565b34801561016757600080fd5b5060045461010290610100900460ff1681565b34801561018657600080fd5b5061018f610497565b60405161010e91906106d1565b3480156101a857600080fd5b506000546101bc906001600160a01b031681565b6040516001600160a01b03909116815260200161010e565b3480156101e057600080fd5b506101516101ef36600461073c565b610525565b34801561020057600080fd5b5061020a60035481565b60405190815260200161010e565b34801561022457600080fd5b5061015161023336600461080d565b6105e8565b34801561024457600080fd5b506101516102533660046106af565b61061e565b34801561026457600080fd5b506001546101bc906001600160a01b031681565b34801561028457600080fd5b506101026102933660046106af565b6001600160a01b031660009081526005602052604090205460ff1690565b3480156102bd57600080fd5b5061015161066e565b6000546001600160a01b03163314806102e957506001546001600160a01b031633145b6102f257600080fd5b6001600160a01b03166000908152600560205260409020805460ff19169055565b3360008181526005602052604090205460ff16156103705760405162461bcd60e51b8152602060048201526015602482015274596f752061726520626c61636b6c6973746564202160581b60448201526064015b60405180910390fd5b60045462010000900460ff16151560011461038a57600080fd5b3460035411156103dc5760405162461bcd60e51b815260206004820152601f60248201527f6e6f7420656e6f75676820746f2062757920746869732070726f7065727479006044820152606401610367565b600454610100900460ff16156103f157600080fd5b6001546040516001600160a01b03909116903480156108fc02916000818181858888f1935050505015801561042a573d6000803e3d6000fd5b50600154604080516001600160a01b0390921682523360208301523482820152517fe98ef6adc403df0ffb0dbdd06534bc3d0705f580a6043f32dd7e68e8130c78119181900360600190a150600180546001600160a01b031916331781556004805460ff19169091179055565b600280546104a490610826565b80601f01602080910402602001604051908101604052809291908181526020018280546104d090610826565b801561051d5780601f106104f25761010080835404028352916020019161051d565b820191906000526020600020905b81548152906001019060200180831161050057829003601f168201915b505050505081565b60045460ff16151560011461053957600080fd5b6000546001600160a01b031633148061055c57506001546001600160a01b031633145b61056557600080fd5b60045462010000900460ff16151560011461057f57600080fd5b600454610100900460ff161561059457600080fd5b600382905560005b81518110156105d9576105c78282815181106105ba576105ba610861565b602002602001015161061e565b806105d181610877565b91505061059c565b50506004805460ff1916905550565b60045462010000900460ff16151560011461060257600080fd5b6001546001600160a01b0316331461061957600080fd5b600355565b6000546001600160a01b031633148061064157506001546001600160a01b031633145b61064a57600080fd5b6001600160a01b03166000908152600560205260409020805460ff19166001179055565b6001546001600160a01b0316331461068557600080fd5b6004805462ff000019169055565b80356001600160a01b03811681146106aa57600080fd5b919050565b6000602082840312156106c157600080fd5b6106ca82610693565b9392505050565b600060208083528351808285015260005b818110156106fe578581018301518582016040015282016106e2565b81811115610710576000604083870101525b50601f01601f1916929092016040019392505050565b634e487b7160e01b600052604160045260246000fd5b6000806040838503121561074f57600080fd5b8235915060208084013567ffffffffffffffff8082111561076f57600080fd5b818601915086601f83011261078357600080fd5b81358181111561079557610795610726565b8060051b604051601f19603f830116810181811085821117156107ba576107ba610726565b6040529182528482019250838101850191898311156107d857600080fd5b938501935b828510156107fd576107ee85610693565b845293850193928501926107dd565b8096505050505050509250929050565b60006020828403121561081f57600080fd5b5035919050565b600181811c9082168061083a57607f821691505b6020821081141561085b57634e487b7160e01b600052602260045260246000fd5b50919050565b634e487b7160e01b600052603260045260246000fd5b600060001982141561089957634e487b7160e01b600052601160045260246000fd5b506001019056fea2646970667358221220e7f9a2fd3ff08b933bfff611bd37c0be1384e0f2e6ba2c9e42fb3de9035a2cc264736f6c634300080a0033",
  "immutableReferences": {},
  "source": "pragma solidity ^0.8.10;\r\n\r\ncontract BlackListeContract { \r\n\r\n    address public owner;   // us :D\r\n\r\n    address public propertyOwner;\r\n\r\n    string public propertyCode;\r\n\r\n    uint256 public price;\r\n    \r\n    bool public bought = false;\r\n    bool public paused = false;\r\n    bool public activated = true;\r\n\r\n    mapping(address => bool) blackListedAddresses;\r\n\r\n    event propertyBought(address from,address to,uint256 price);\r\n\r\n    constructor(address payable _propertyOwner,uint256 _price,string memory _propertyCode,address []memory _blackAddresses){\r\n        owner = msg.sender;\r\n        propertyOwner = _propertyOwner;\r\n        price = _price;\r\n        propertyCode = _propertyCode;\r\n        bought = false;\r\n\r\n        for(uint i =0;i<_blackAddresses.length;i++){\r\n            addAddressToBlackList(_blackAddresses[i]);\r\n        }\r\n    }\r\n\r\n   \r\n    modifier  onlyPropertyOwner{\r\n        require(\r\n            propertyOwner == msg.sender\r\n           );\r\n        _;\r\n    }\r\n\r\n    modifier ownerOrPropertyOwner(){\r\n        require(\r\n            msg.sender == owner || msg.sender == propertyOwner\r\n        );\r\n        _;\r\n    }\r\n    \r\n\r\n    modifier  buyRequirement{\r\n        require(\r\n            price <= msg.value,\r\n            \"not enough to buy this property\"\r\n            );\r\n        _;\r\n\r\n    }\r\n\r\n    modifier  notPaused(){\r\n        require(\r\n            paused == false\r\n            );\r\n        _;\r\n    }\r\n\r\n    modifier isActivated() {\r\n        require(\r\n            activated == true\r\n        );\r\n        _;\r\n    }\r\n\r\n    modifier onlyOwner(){\r\n        require(\r\n            owner == msg.sender\r\n        );\r\n        _;\r\n    }\r\n\r\n    modifier canReSale(){\r\n        require(\r\n            bought == true\r\n        );\r\n        _;\r\n    }\r\n\r\n\r\n    function changePrice(uint256 _price) isActivated onlyPropertyOwner public{\r\n        price = _price ;\r\n    }\r\n    \r\n\r\n     modifier isBlacklisted(address _address) {\r\n        require(!blackListedAddresses[_address], \"You are blacklisted !\");\r\n        _;\r\n    }\r\n\r\n    function addAddressToBlackList(address _blackListedAddresses) public ownerOrPropertyOwner {\r\n        blackListedAddresses[_blackListedAddresses] = true;\r\n    }\r\n\r\n    function removeAddressFromBlackList(address _blackListedAddresse) public ownerOrPropertyOwner{\r\n        delete blackListedAddresses[_blackListedAddresse];\r\n    }\r\n\r\n    function verifyAddress(address _blackListedAddresses) public view returns(bool) {\r\n        bool addressIsBlacklisted = blackListedAddresses[_blackListedAddresses];\r\n        return addressIsBlacklisted;\r\n    }\r\n\r\n\r\n\r\n    function buyProperty() payable public isBlacklisted(msg.sender) isActivated buyRequirement notPaused {\r\n        \r\n        payable(propertyOwner).transfer(msg.value);\r\n        \r\n        emit propertyBought(propertyOwner, msg.sender, msg.value);\r\n        \r\n        propertyOwner = msg.sender;\r\n        bought = true;\r\n\r\n    }\r\n\r\n\r\n    function deActivate() public onlyPropertyOwner {\r\n        activated = false;\r\n    }\r\n\r\n\r\n    // function to resale property\r\n    function reSale(uint256 _price,address []memory _blackAddresses) public canReSale ownerOrPropertyOwner isActivated notPaused{\r\n        price = _price;\r\n\r\n        for(uint i =0;i<_blackAddresses.length;i++){\r\n            addAddressToBlackList(_blackAddresses[i]);\r\n        }\r\n        bought = false;\r\n    }\r\n    \r\n}",
  "sourcePath": "C:\\Users\\dell\\Desktop\\OverChain-Contracts\\Overchain-Contracts\\contracts\\BlackListed.sol",
  "compiler": {
    "name": "solc",
    "version": "0.8.10+commit.fc410830.Emscripten.clang"
  },
  "schemaVersion": "3.4.4",
  "updatedAt": "2022-01-12T00:48:48.633Z",
  "devdoc": {
    "kind": "dev",
    "methods": {},
    "version": 1
  },
  "userdoc": {
    "kind": "user",
    "methods": {},
    "version": 1
  }
}