{
  "contractName": "BlackListeContract",
  "abi": [
    {
      "inputs": [
        {
          "internalType": "address payable",
          "name": "_propertyOwner",
          "type": "address"
        },
        {
          "internalType": "uint256",
          "name": "_price",
          "type": "uint256"
        },
        {
          "internalType": "string",
          "name": "_propertyCode",
          "type": "string"
        },
        {
          "internalType": "address[]",
          "name": "_blackAddresses",
          "type": "address[]"
        }
      ],
      "stateMutability": "nonpayable",
      "type": "constructor"
    },
    {
      "anonymous": false,
      "inputs": [
        {
          "indexed": false,
          "internalType": "address",
          "name": "from",
          "type": "address"
        },
        {
          "indexed": false,
          "internalType": "address",
          "name": "to",
          "type": "address"
        },
        {
          "indexed": false,
          "internalType": "uint256",
          "name": "price",
          "type": "uint256"
        }
      ],
      "name": "propertyBought",
      "type": "event"
    },
    {
      "inputs": [],
      "name": "activated",
      "outputs": [
        {
          "internalType": "bool",
          "name": "",
          "type": "bool"
        }
      ],
      "stateMutability": "view",
      "type": "function"
    },
    {
      "inputs": [
        {
          "internalType": "address",
          "name": "",
          "type": "address"
        }
      ],
      "name": "blackListedAddresses",
      "outputs": [
        {
          "internalType": "bool",
          "name": "",
          "type": "bool"
        }
      ],
      "stateMutability": "view",
      "type": "function"
    },
    {
      "inputs": [],
      "name": "bought",
      "outputs": [
        {
          "internalType": "bool",
          "name": "",
          "type": "bool"
        }
      ],
      "stateMutability": "view",
      "type": "function"
    },
    {
      "inputs": [],
      "name": "owner",
      "outputs": [
        {
          "internalType": "address",
          "name": "",
          "type": "address"
        }
      ],
      "stateMutability": "view",
      "type": "function"
    },
    {
      "inputs": [],
      "name": "paused",
      "outputs": [
        {
          "internalType": "bool",
          "name": "",
          "type": "bool"
        }
      ],
      "stateMutability": "view",
      "type": "function"
    },
    {
      "inputs": [],
      "name": "price",
      "outputs": [
        {
          "internalType": "uint256",
          "name": "",
          "type": "uint256"
        }
      ],
      "stateMutability": "view",
      "type": "function"
    },
    {
      "inputs": [],
      "name": "propertyCode",
      "outputs": [
        {
          "internalType": "string",
          "name": "",
          "type": "string"
        }
      ],
      "stateMutability": "view",
      "type": "function"
    },
    {
      "inputs": [],
      "name": "propertyOwner",
      "outputs": [
        {
          "internalType": "address",
          "name": "",
          "type": "address"
        }
      ],
      "stateMutability": "view",
      "type": "function"
    },
    {
      "inputs": [
        {
          "internalType": "uint256",
          "name": "_price",
          "type": "uint256"
        }
      ],
      "name": "changePrice",
      "outputs": [],
      "stateMutability": "nonpayable",
      "type": "function"
    },
    {
      "inputs": [
        {
          "internalType": "address",
          "name": "_blackListedAddresses",
          "type": "address"
        }
      ],
      "name": "addAddressToBlackList",
      "outputs": [],
      "stateMutability": "nonpayable",
      "type": "function"
    },
    {
      "inputs": [
        {
          "internalType": "address",
          "name": "_blackListedAddresse",
          "type": "address"
        }
      ],
      "name": "removeAddressFromBlackList",
      "outputs": [],
      "stateMutability": "nonpayable",
      "type": "function"
    },
    {
      "inputs": [
        {
          "internalType": "address",
          "name": "_blackListedAddresses",
          "type": "address"
        }
      ],
      "name": "verifyAddress",
      "outputs": [
        {
          "internalType": "bool",
          "name": "",
          "type": "bool"
        }
      ],
      "stateMutability": "view",
      "type": "function"
    },
    {
      "inputs": [],
      "name": "buyProperty",
      "outputs": [],
      "stateMutability": "payable",
      "type": "function"
    },
    {
      "inputs": [],
      "name": "deActivate",
      "outputs": [],
      "stateMutability": "nonpayable",
      "type": "function"
    },
    {
      "inputs": [],
      "name": "Pause",
      "outputs": [],
      "stateMutability": "nonpayable",
      "type": "function"
    },
    {
      "inputs": [],
      "name": "UnPause",
      "outputs": [],
      "stateMutability": "nonpayable",
      "type": "function"
    },
    {
      "inputs": [
        {
          "internalType": "uint256",
          "name": "_price",
          "type": "uint256"
        },
        {
          "internalType": "address[]",
          "name": "_blackAddresses",
          "type": "address[]"
        }
      ],
      "name": "reSale",
      "outputs": [],
      "stateMutability": "nonpayable",
      "type": "function"
    }
  ],
  "bytecode": "0x60806040526004805462ffffff1916620100001790553480156200002257600080fd5b5060405162000e0a38038062000e0a8339810160408190526200004591620002da565b60008054336001600160a01b031991821617909155600180549091166001600160a01b03861617905560038390558151620000889060029060208501906200013f565b506004805460ff1916905560005b8151811015620000e257620000cd828281518110620000b957620000b9620003e0565b6020026020010151620000ed60201b60201c565b80620000d981620003f6565b91505062000096565b50505050506200045d565b6000546001600160a01b03163314806200011157506001546001600160a01b031633145b6200011b57600080fd5b6001600160a01b03166000908152600560205260409020805460ff19166001179055565b8280546200014d9062000420565b90600052602060002090601f016020900481019282620001715760008555620001bc565b82601f106200018c57805160ff1916838001178555620001bc565b82800160010185558215620001bc579182015b82811115620001bc5782518255916020019190600101906200019f565b50620001ca929150620001ce565b5090565b5b80821115620001ca5760008155600101620001cf565b6001600160a01b0381168114620001fb57600080fd5b50565b634e487b7160e01b600052604160045260246000fd5b604051601f8201601f191681016001600160401b03811182821017156200023f576200023f620001fe565b604052919050565b600082601f8301126200025957600080fd5b815160206001600160401b03821115620002775762000277620001fe565b8160051b6200028882820162000214565b9283528481018201928281019087851115620002a357600080fd5b83870192505b84831015620002cf578251620002bf81620001e5565b82529183019190830190620002a9565b979650505050505050565b60008060008060808587031215620002f157600080fd5b8451620002fe81620001e5565b60208681015160408801519296509450906001600160401b03808211156200032557600080fd5b818801915088601f8301126200033a57600080fd5b8151818111156200034f576200034f620001fe565b62000363601f8201601f1916850162000214565b8181528a858386010111156200037857600080fd5b60005b82811015620003985784810186015182820187015285016200037b565b82811115620003aa5760008684840101525b5060608a015190965093505080831115620003c457600080fd5b5050620003d48782880162000247565b91505092959194509250565b634e487b7160e01b600052603260045260246000fd5b60006000198214156200041957634e487b7160e01b600052601160045260246000fd5b5060010190565b600181811c908216806200043557607f821691505b602082108114156200045757634e487b7160e01b600052602260045260246000fd5b50919050565b61099d806200046d6000396000f3fe6080604052600436106100fe5760003560e01c80638da5cb5b11610095578063b5d354c411610064578063b5d354c414610283578063f446c38f146102a3578063f54dc757146102c3578063fcb2cafc146102f3578063ff895a621461032c57600080fd5b80638da5cb5b146101e757806397190ba11461021f578063a035b1fe1461023f578063a2b40d191461026357600080fd5b8063451a308f116100d1578063451a308f146101895780635c975abb146101915780636985a022146101b05780638a2c8a51146101c557600080fd5b8063186601ca1461010357806334976b9b14610138578063371aafd814610152578063438cd2d314610174575b600080fd5b34801561010f57600080fd5b506004546101239062010000900460ff1681565b60405190151581526020015b60405180910390f35b34801561014457600080fd5b506004546101239060ff1681565b34801561015e57600080fd5b5061017261016d366004610776565b610341565b005b34801561018057600080fd5b5061017261038e565b6101726103b2565b34801561019d57600080fd5b5060045461012390610100900460ff1681565b3480156101bc57600080fd5b50610172610536565b3480156101d157600080fd5b506101da61055e565b60405161012f9190610798565b3480156101f357600080fd5b50600054610207906001600160a01b031681565b6040516001600160a01b03909116815260200161012f565b34801561022b57600080fd5b5061017261023a366004610803565b6105ec565b34801561024b57600080fd5b5061025560035481565b60405190815260200161012f565b34801561026f57600080fd5b5061017261027e3660046108d4565b6106af565b34801561028f57600080fd5b5061017261029e366004610776565b6106e5565b3480156102af57600080fd5b50600154610207906001600160a01b031681565b3480156102cf57600080fd5b506101236102de366004610776565b60056020526000908152604090205460ff1681565b3480156102ff57600080fd5b5061012361030e366004610776565b6001600160a01b031660009081526005602052604090205460ff1690565b34801561033857600080fd5b50610172610735565b6000546001600160a01b031633148061036457506001546001600160a01b031633145b61036d57600080fd5b6001600160a01b03166000908152600560205260409020805460ff19169055565b6001546001600160a01b031633146103a557600080fd5b6004805461ff0019169055565b3360008181526005602052604090205460ff161561040f5760405162461bcd60e51b8152602060048201526015602482015274596f752061726520626c61636b6c6973746564202160581b60448201526064015b60405180910390fd5b60045462010000900460ff16151560011461042957600080fd5b34600354111561047b5760405162461bcd60e51b815260206004820152601f60248201527f6e6f7420656e6f75676820746f2062757920746869732070726f7065727479006044820152606401610406565b600454610100900460ff161561049057600080fd5b6001546040516001600160a01b03909116903480156108fc02916000818181858888f193505050501580156104c9573d6000803e3d6000fd5b50600154604080516001600160a01b0390921682523360208301523482820152517fe98ef6adc403df0ffb0dbdd06534bc3d0705f580a6043f32dd7e68e8130c78119181900360600190a150600180546001600160a01b031916331781556004805460ff19169091179055565b6001546001600160a01b0316331461054d57600080fd5b6004805461ff001916610100179055565b6002805461056b906108ed565b80601f0160208091040260200160405190810160405280929190818152602001828054610597906108ed565b80156105e45780601f106105b9576101008083540402835291602001916105e4565b820191906000526020600020905b8154815290600101906020018083116105c757829003601f168201915b505050505081565b60045460ff16151560011461060057600080fd5b6000546001600160a01b031633148061062357506001546001600160a01b031633145b61062c57600080fd5b60045462010000900460ff16151560011461064657600080fd5b600454610100900460ff161561065b57600080fd5b600382905560005b81518110156106a05761068e82828151811061068157610681610928565b60200260200101516106e5565b806106988161093e565b915050610663565b50506004805460ff1916905550565b60045462010000900460ff1615156001146106c957600080fd5b6001546001600160a01b031633146106e057600080fd5b600355565b6000546001600160a01b031633148061070857506001546001600160a01b031633145b61071157600080fd5b6001600160a01b03166000908152600560205260409020805460ff19166001179055565b6001546001600160a01b0316331461074c57600080fd5b6004805462ff000019169055565b80356001600160a01b038116811461077157600080fd5b919050565b60006020828403121561078857600080fd5b6107918261075a565b9392505050565b600060208083528351808285015260005b818110156107c5578581018301518582016040015282016107a9565b818111156107d7576000604083870101525b50601f01601f1916929092016040019392505050565b634e487b7160e01b600052604160045260246000fd5b6000806040838503121561081657600080fd5b8235915060208084013567ffffffffffffffff8082111561083657600080fd5b818601915086601f83011261084a57600080fd5b81358181111561085c5761085c6107ed565b8060051b604051601f19603f83011681018181108582111715610881576108816107ed565b60405291825284820192508381018501918983111561089f57600080fd5b938501935b828510156108c4576108b58561075a565b845293850193928501926108a4565b8096505050505050509250929050565b6000602082840312156108e657600080fd5b5035919050565b600181811c9082168061090157607f821691505b6020821081141561092257634e487b7160e01b600052602260045260246000fd5b50919050565b634e487b7160e01b600052603260045260246000fd5b600060001982141561096057634e487b7160e01b600052601160045260246000fd5b506001019056fea264697066735822122001758bc484d04897ffed5b413fb8308c13a0f4e09137209621ffa5a727e4327464736f6c634300080a0033",
  "immutableReferences": {},
  "source": "pragma solidity ^0.8.10;\r\n\r\ncontract BlackListeContract { \r\n\r\n    address public owner;   // us :D\r\n\r\n    address public propertyOwner;\r\n\r\n    string public propertyCode;\r\n\r\n    uint256 public price;\r\n    \r\n    bool public bought = false;\r\n    bool public paused = false;\r\n    bool public activated = true;\r\n\r\n    mapping(address => bool) public blackListedAddresses;\r\n\r\n    event propertyBought(address from,address to,uint256 price);\r\n\r\n    constructor(address payable _propertyOwner,uint256 _price,string memory _propertyCode,address []memory _blackAddresses){\r\n        owner = msg.sender;\r\n        propertyOwner = _propertyOwner;\r\n        price = _price;\r\n        propertyCode = _propertyCode;\r\n        bought = false;\r\n        for(uint i =0;i<_blackAddresses.length;i++){\r\n            addAddressToBlackList(_blackAddresses[i]);\r\n        }\r\n    }\r\n   \r\n    modifier  onlyPropertyOwner{\r\n        require(\r\n            propertyOwner == msg.sender\r\n           );\r\n        _;\r\n    }\r\n\r\n    modifier ownerOrPropertyOwner(){\r\n        require(\r\n            msg.sender == owner || msg.sender == propertyOwner\r\n        );\r\n        _;\r\n    }\r\n\r\n    modifier  buyRequirement{\r\n        require(\r\n            price <= msg.value,\r\n            \"not enough to buy this property\"\r\n            );\r\n        _;\r\n    }\r\n\r\n    modifier  notPaused(){\r\n        require(\r\n            paused == false\r\n            );\r\n        _;\r\n    }\r\n\r\n    modifier isActivated() {\r\n        require(\r\n            activated == true\r\n        );\r\n        _;\r\n    }\r\n\r\n    modifier onlyOwner(){\r\n        require(\r\n            owner == msg.sender\r\n        );\r\n        _;\r\n    }\r\n\r\n    modifier canReSale(){\r\n        require(\r\n            bought == true\r\n        );\r\n        _;\r\n    }\r\n\r\n\r\n    function changePrice(uint256 _price) isActivated onlyPropertyOwner public{\r\n        price = _price ;\r\n    }\r\n    \r\n\r\n     modifier isBlacklisted(address _address) {\r\n        require(!blackListedAddresses[_address], \"You are blacklisted !\");\r\n        _;\r\n    }\r\n\r\n    function addAddressToBlackList(address _blackListedAddresses) public ownerOrPropertyOwner {\r\n        blackListedAddresses[_blackListedAddresses] = true;\r\n    }\r\n\r\n    function removeAddressFromBlackList(address _blackListedAddresse) public ownerOrPropertyOwner{\r\n        delete blackListedAddresses[_blackListedAddresse];\r\n    }\r\n\r\n    function verifyAddress(address _blackListedAddresses) public view returns(bool) {\r\n        bool addressIsBlacklisted = blackListedAddresses[_blackListedAddresses];\r\n        return addressIsBlacklisted;\r\n    }\r\n\r\n\r\n\r\n    function buyProperty() payable public isBlacklisted(msg.sender) isActivated buyRequirement notPaused {\r\n        \r\n        payable(propertyOwner).transfer(msg.value);\r\n        \r\n        emit propertyBought(propertyOwner, msg.sender, msg.value);\r\n        \r\n        propertyOwner = msg.sender;\r\n        bought = true;\r\n\r\n    }\r\n\r\n\r\n    function deActivate() public onlyPropertyOwner {\r\n        activated = false;\r\n    }\r\n\r\n    function Pause() public onlyPropertyOwner {\r\n        paused = true;\r\n    }\r\n\r\n    function UnPause()public onlyPropertyOwner{\r\n        paused = false ; \r\n    }\r\n\r\n\r\n    // function to resale property\r\n    function reSale(uint256 _price,address []memory _blackAddresses) public canReSale ownerOrPropertyOwner isActivated notPaused{\r\n        price = _price;\r\n\r\n        for(uint i =0;i<_blackAddresses.length;i++){\r\n            addAddressToBlackList(_blackAddresses[i]);\r\n        }\r\n        bought = false;\r\n    }\r\n    \r\n}",
  "sourcePath": "C:\\Users\\dell\\Desktop\\OverChain-Contracts\\Overchain-Contracts\\contracts\\BlackListed.sol",
  "compiler": {
    "name": "solc",
    "version": "0.8.10+commit.fc410830.Emscripten.clang"
  },
  "schemaVersion": "3.4.4",
  "updatedAt": "2022-02-02T02:06:12.529Z",
  "devdoc": {
    "kind": "dev",
    "methods": {},
    "version": 1
  },
  "userdoc": {
    "kind": "user",
    "methods": {},
    "version": 1
  }
}