{
  "contractName": "WhiteListedContract",
  "abi": [
    {
      "inputs": [],
      "stateMutability": "nonpayable",
      "type": "constructor"
    },
    {
      "anonymous": false,
      "inputs": [
        {
          "indexed": false,
          "internalType": "address",
          "name": "from",
          "type": "address"
        },
        {
          "indexed": false,
          "internalType": "address",
          "name": "to",
          "type": "address"
        },
        {
          "indexed": false,
          "internalType": "uint256",
          "name": "price",
          "type": "uint256"
        }
      ],
      "name": "propertyBought",
      "type": "event"
    },
    {
      "anonymous": false,
      "inputs": [
        {
          "indexed": false,
          "internalType": "address",
          "name": "",
          "type": "address"
        },
        {
          "indexed": false,
          "internalType": "uint256",
          "name": "",
          "type": "uint256"
        },
        {
          "indexed": false,
          "internalType": "string",
          "name": "",
          "type": "string"
        }
      ],
      "name": "propertyDeployed",
      "type": "event"
    },
    {
      "inputs": [],
      "name": "buyer",
      "outputs": [
        {
          "internalType": "address",
          "name": "",
          "type": "address"
        }
      ],
      "stateMutability": "view",
      "type": "function",
      "constant": true
    },
    {
      "inputs": [],
      "name": "cancel",
      "outputs": [
        {
          "internalType": "bool",
          "name": "",
          "type": "bool"
        }
      ],
      "stateMutability": "view",
      "type": "function",
      "constant": true
    },
    {
      "inputs": [],
      "name": "minPrice",
      "outputs": [
        {
          "internalType": "uint256",
          "name": "",
          "type": "uint256"
        }
      ],
      "stateMutability": "view",
      "type": "function",
      "constant": true
    },
    {
      "inputs": [],
      "name": "owner",
      "outputs": [
        {
          "internalType": "address",
          "name": "",
          "type": "address"
        }
      ],
      "stateMutability": "view",
      "type": "function",
      "constant": true
    },
    {
      "inputs": [],
      "name": "paused",
      "outputs": [
        {
          "internalType": "bool",
          "name": "",
          "type": "bool"
        }
      ],
      "stateMutability": "view",
      "type": "function",
      "constant": true
    },
    {
      "inputs": [],
      "name": "price",
      "outputs": [
        {
          "internalType": "uint256",
          "name": "",
          "type": "uint256"
        }
      ],
      "stateMutability": "view",
      "type": "function",
      "constant": true
    },
    {
      "inputs": [],
      "name": "propertyCode",
      "outputs": [
        {
          "internalType": "string",
          "name": "",
          "type": "string"
        }
      ],
      "stateMutability": "view",
      "type": "function",
      "constant": true
    },
    {
      "inputs": [],
      "name": "seller",
      "outputs": [
        {
          "internalType": "address",
          "name": "",
          "type": "address"
        }
      ],
      "stateMutability": "view",
      "type": "function",
      "constant": true
    },
    {
      "inputs": [
        {
          "internalType": "address",
          "name": "_whiteListedAddresses",
          "type": "address"
        }
      ],
      "name": "addAddressToWhiteList",
      "outputs": [],
      "stateMutability": "nonpayable",
      "type": "function"
    },
    {
      "inputs": [
        {
          "internalType": "address",
          "name": "_whiteListedAddresses",
          "type": "address"
        }
      ],
      "name": "verifyAddress",
      "outputs": [
        {
          "internalType": "bool",
          "name": "",
          "type": "bool"
        }
      ],
      "stateMutability": "view",
      "type": "function",
      "constant": true
    },
    {
      "inputs": [
        {
          "internalType": "uint256",
          "name": "_price",
          "type": "uint256"
        }
      ],
      "name": "changePrice",
      "outputs": [],
      "stateMutability": "nonpayable",
      "type": "function"
    },
    {
      "inputs": [
        {
          "internalType": "uint256",
          "name": "_minPrice",
          "type": "uint256"
        }
      ],
      "name": "changeMinPrice",
      "outputs": [],
      "stateMutability": "nonpayable",
      "type": "function"
    },
    {
      "inputs": [
        {
          "internalType": "address",
          "name": "_seller",
          "type": "address"
        },
        {
          "internalType": "uint256",
          "name": "_price",
          "type": "uint256"
        },
        {
          "internalType": "uint256",
          "name": "_minPrice",
          "type": "uint256"
        },
        {
          "internalType": "string",
          "name": "_propertyCode",
          "type": "string"
        }
      ],
      "name": "addProperty",
      "outputs": [],
      "stateMutability": "nonpayable",
      "type": "function"
    },
    {
      "inputs": [
        {
          "internalType": "address payable",
          "name": "_buyer",
          "type": "address"
        }
      ],
      "name": "signContract",
      "outputs": [],
      "stateMutability": "payable",
      "type": "function",
      "payable": true
    }
  ],
  "bytecode": "0x60806040526006805461ffff1916905534801561001b57600080fd5b50600080546001600160a01b031916331790556109898061003d6000396000f3fe6080604052600436106100dd5760003560e01c80639244f4961161007f578063a2b40d1911610059578063a2b40d1914610244578063e45be8eb14610264578063ea8a1af01461027a578063fcb2cafc1461029957600080fd5b80639244f496146101e05780639aff11ae14610200578063a035b1fe1461022057600080fd5b80637150d8ae116100bb5780637150d8ae1461016b57806379e93bf81461018b5780638a2c8a511461019e5780638da5cb5b146101c057600080fd5b806308551a53146100e2578063152e70211461011f5780635c975abb14610141575b600080fd5b3480156100ee57600080fd5b50600154610102906001600160a01b031681565b6040516001600160a01b0390911681526020015b60405180910390f35b34801561012b57600080fd5b5061013f61013a3660046106ed565b6102d2565b005b34801561014d57600080fd5b5060065461015b9060ff1681565b6040519015158152602001610116565b34801561017757600080fd5b50600254610102906001600160a01b031681565b61013f6101993660046107c4565b61038e565b3480156101aa57600080fd5b506101b3610507565b60405161011691906107e8565b3480156101cc57600080fd5b50600054610102906001600160a01b031681565b3480156101ec57600080fd5b5061013f6101fb3660046107c4565b610595565b34801561020c57600080fd5b5061013f61021b36600461083d565b6105d0565b34801561022c57600080fd5b5061023660055481565b604051908152602001610116565b34801561025057600080fd5b5061013f61025f36600461083d565b6105fb565b34801561027057600080fd5b5061023660045481565b34801561028657600080fd5b5060065461015b90610100900460ff1681565b3480156102a557600080fd5b5061015b6102b43660046107c4565b6001600160a01b031660009081526007602052604090205460ff1690565b6000546001600160a01b031633146102e957600080fd5b818310156102f657600080fd5b60008054336001600160a01b031991821617909155600180549091166001600160a01b03861617905560058390556004829055805161033c906003906020840190610626565b506001546005546040517f3da108fc393293f2739056eefad245de4a09649e71fbce2b6136f7cc5bb1a3a492610380926001600160a01b0390911691600390610891565b60405180910390a150505050565b34600554146103e45760405162461bcd60e51b815260206004820152601f60248201527f6e6f7420656e6f75676820746f2062757920746869732070726f70657274790060448201526064015b60405180910390fd5b60065460ff16156103f457600080fd5b6001600160a01b038116600090815260076020526040902054819060ff1661045e5760405162461bcd60e51b815260206004820152601a60248201527f596f75206e65656420746f2062652077686974656c697374656400000000000060448201526064016103db565b600280546001600160a01b038085166001600160a01b0319909216919091179091556001546040519116903480156108fc02916000818181858888f193505050501580156104b0573d6000803e3d6000fd5b50600254600154600554604080516001600160a01b03948516815293909216602084015282820152517fe98ef6adc403df0ffb0dbdd06534bc3d0705f580a6043f32dd7e68e8130c78119181900360600190a15050565b6003805461051490610856565b80601f016020809104026020016040519081016040528092919081815260200182805461054090610856565b801561058d5780601f106105625761010080835404028352916020019161058d565b820191906000526020600020905b81548152906001019060200180831161057057829003601f168201915b505050505081565b6000546001600160a01b031633146105ac57600080fd5b6001600160a01b03166000908152600760205260409020805460ff19166001179055565b6001546001600160a01b031633146105e757600080fd5b8060055410156105f657600080fd5b600455565b6001546001600160a01b0316331461061257600080fd5b60045481101561062157600080fd5b600555565b82805461063290610856565b90600052602060002090601f016020900481019282610654576000855561069a565b82601f1061066d57805160ff191683800117855561069a565b8280016001018555821561069a579182015b8281111561069a57825182559160200191906001019061067f565b506106a69291506106aa565b5090565b5b808211156106a657600081556001016106ab565b6001600160a01b03811681146106d457600080fd5b50565b634e487b7160e01b600052604160045260246000fd5b6000806000806080858703121561070357600080fd5b843561070e816106bf565b93506020850135925060408501359150606085013567ffffffffffffffff8082111561073957600080fd5b818701915087601f83011261074d57600080fd5b81358181111561075f5761075f6106d7565b604051601f8201601f19908116603f01168101908382118183101715610787576107876106d7565b816040528281528a60208487010111156107a057600080fd5b82602086016020830137600060208483010152809550505050505092959194509250565b6000602082840312156107d657600080fd5b81356107e1816106bf565b9392505050565b600060208083528351808285015260005b81811015610815578581018301518582016040015282016107f9565b81811115610827576000604083870101525b50601f01601f1916929092016040019392505050565b60006020828403121561084f57600080fd5b5035919050565b600181811c9082168061086a57607f821691505b6020821081141561088b57634e487b7160e01b600052602260045260246000fd5b50919050565b6001600160a01b03841681526020808201849052606060408301528254600091908290600181811c90828116806108c957607f831692505b8583108114156108e757634e487b7160e01b85526022600452602485fd5b6060880183905260808801818015610906576001811461091757610942565b60ff19861682528782019650610942565b60008b81526020902060005b8681101561093c57815484820152908501908901610923565b83019750505b50949b9a505050505050505050505056fea2646970667358221220c575abaa19d830fe15290b054547f82f44225368c91a62470c7f3434a58f09ff64736f6c634300080a0033",
  "immutableReferences": {},
  "source": "pragma solidity ^0.8.10;\r\n\r\ncontract WhiteListedContract{\r\n\r\n    address public owner;   // us :D\r\n\r\n    address public seller;\r\n    address public buyer;\r\n    string public propertyCode;\r\n\r\n    uint256 public minPrice ; \r\n    uint256 public price;\r\n\r\n    bool public paused = false;\r\n    bool public cancel = false;\r\n\r\n    event propertyBought(address from,address to,uint256 price);\r\n\r\n    event propertyDeployed(address ,uint256, string );\r\n\r\n    mapping(address => bool) whiteListedAddresses;\r\n    \r\n    constructor(){\r\n\r\n       owner = msg.sender;\r\n\r\n    }\r\n       \r\n\r\n    modifier  onlyOwner{\r\n        require(\r\n            msg.sender == owner\r\n            );\r\n        _;\r\n    }\r\n\r\n    modifier  onlySeller{\r\n        require(\r\n            msg.sender == seller\r\n            );\r\n        _;\r\n    }\r\n    \r\n\r\n    modifier  buyRequirement{\r\n        require(\r\n            price == msg.value,\r\n            \"not enough to buy this property\"\r\n            );\r\n        _;\r\n    }\r\n\r\n    modifier  notPaused(){\r\n        require(\r\n            paused == false\r\n            );\r\n        _;\r\n    }\r\n\r\n\r\n\r\n    modifier isWhitelisted(address _address) {\r\n        require(whiteListedAddresses[_address], \"You need to be whitelisted\");\r\n        _;\r\n    }\r\n\r\n    function addAddressToWhiteList(address _whiteListedAddresses) public onlyOwner {\r\n        whiteListedAddresses[_whiteListedAddresses] = true;\r\n    }\r\n\r\n    function verifyAddress(address _whiteListedAddresses) public view returns(bool) {\r\n        bool addressIsWhitelisted = whiteListedAddresses[_whiteListedAddresses];\r\n        return addressIsWhitelisted;\r\n    }\r\n\r\n\r\n    function changePrice(uint256 _price) onlySeller public{\r\n        require( _price >= minPrice );\r\n        price = _price ;\r\n    }\r\n    \r\n\r\n    function changeMinPrice(uint256 _minPrice) onlySeller public{\r\n        require( price >= _minPrice );\r\n        minPrice = _minPrice ;\r\n    }\r\n\r\n    function addProperty(address _seller,uint256 _price,uint256 _minPrice ,string memory _propertyCode) public onlyOwner{\r\n\r\n        require( _price >= _minPrice );\r\n\r\n        owner = msg.sender;\r\n        seller = _seller;\r\n        price = _price;\r\n        minPrice = _minPrice;\r\n        propertyCode = _propertyCode;\r\n       \r\n        emit propertyDeployed(seller, price, propertyCode);\r\n    }\r\n\r\n\r\n    function signContract(address payable _buyer) payable public buyRequirement notPaused isWhitelisted(_buyer) {\r\n        buyer = _buyer;\r\n        //(bool sent, bytes memory data) = payable(seller).call{value: msg.value}(\"\");\r\n        payable(seller).transfer(msg.value);\r\n        //require(sent,\"not sent !\");\r\n        emit propertyBought(buyer, seller, price);\r\n    }    \r\n\r\n    \r\n}",
  "sourcePath": "C:\\Users\\dell\\Desktop\\OverChain Contract\\contracts\\whiteList.sol",
  "compiler": {
    "name": "solc",
    "version": "0.8.10+commit.fc410830.Emscripten.clang"
  },
  "schemaVersion": "3.4.4",
  "updatedAt": "2022-01-07T21:23:33.414Z",
  "networkType": "ethereum",
  "devdoc": {
    "kind": "dev",
    "methods": {},
    "version": 1
  },
  "userdoc": {
    "kind": "user",
    "methods": {},
    "version": 1
  }
}