{
  "contractName": "WhiteListeContract",
  "abi": [
    {
      "inputs": [
        {
          "internalType": "address payable",
          "name": "_propertyOwner",
          "type": "address"
        },
        {
          "internalType": "uint256",
          "name": "_price",
          "type": "uint256"
        },
        {
          "internalType": "string",
          "name": "_propertyCode",
          "type": "string"
        },
        {
          "internalType": "address[]",
          "name": "_whiteAddresses",
          "type": "address[]"
        }
      ],
      "stateMutability": "nonpayable",
      "type": "constructor"
    },
    {
      "anonymous": false,
      "inputs": [
        {
          "indexed": false,
          "internalType": "address",
          "name": "from",
          "type": "address"
        },
        {
          "indexed": false,
          "internalType": "address",
          "name": "to",
          "type": "address"
        },
        {
          "indexed": false,
          "internalType": "uint256",
          "name": "price",
          "type": "uint256"
        }
      ],
      "name": "propertyBought",
      "type": "event"
    },
    {
      "inputs": [],
      "name": "activated",
      "outputs": [
        {
          "internalType": "bool",
          "name": "",
          "type": "bool"
        }
      ],
      "stateMutability": "view",
      "type": "function"
    },
    {
      "inputs": [],
      "name": "bought",
      "outputs": [
        {
          "internalType": "bool",
          "name": "",
          "type": "bool"
        }
      ],
      "stateMutability": "view",
      "type": "function"
    },
    {
      "inputs": [],
      "name": "owner",
      "outputs": [
        {
          "internalType": "address",
          "name": "",
          "type": "address"
        }
      ],
      "stateMutability": "view",
      "type": "function"
    },
    {
      "inputs": [],
      "name": "paused",
      "outputs": [
        {
          "internalType": "bool",
          "name": "",
          "type": "bool"
        }
      ],
      "stateMutability": "view",
      "type": "function"
    },
    {
      "inputs": [],
      "name": "price",
      "outputs": [
        {
          "internalType": "uint256",
          "name": "",
          "type": "uint256"
        }
      ],
      "stateMutability": "view",
      "type": "function"
    },
    {
      "inputs": [],
      "name": "propertyCode",
      "outputs": [
        {
          "internalType": "string",
          "name": "",
          "type": "string"
        }
      ],
      "stateMutability": "view",
      "type": "function"
    },
    {
      "inputs": [],
      "name": "propertyOwner",
      "outputs": [
        {
          "internalType": "address",
          "name": "",
          "type": "address"
        }
      ],
      "stateMutability": "view",
      "type": "function"
    },
    {
      "inputs": [
        {
          "internalType": "uint256",
          "name": "_price",
          "type": "uint256"
        }
      ],
      "name": "changePrice",
      "outputs": [],
      "stateMutability": "nonpayable",
      "type": "function"
    },
    {
      "inputs": [
        {
          "internalType": "address",
          "name": "_whiteListedAddresses",
          "type": "address"
        }
      ],
      "name": "addAddressToWhiteList",
      "outputs": [],
      "stateMutability": "nonpayable",
      "type": "function"
    },
    {
      "inputs": [
        {
          "internalType": "address",
          "name": "_whiteListedAddresse",
          "type": "address"
        }
      ],
      "name": "removeAddressFromWhiteList",
      "outputs": [],
      "stateMutability": "nonpayable",
      "type": "function"
    },
    {
      "inputs": [
        {
          "internalType": "address",
          "name": "_whiteListedAddresses",
          "type": "address"
        }
      ],
      "name": "verifyAddress",
      "outputs": [
        {
          "internalType": "bool",
          "name": "",
          "type": "bool"
        }
      ],
      "stateMutability": "view",
      "type": "function"
    },
    {
      "inputs": [],
      "name": "buyProperty",
      "outputs": [],
      "stateMutability": "payable",
      "type": "function"
    },
    {
      "inputs": [],
      "name": "deActivate",
      "outputs": [],
      "stateMutability": "nonpayable",
      "type": "function"
    },
    {
      "inputs": [
        {
          "internalType": "uint256",
          "name": "_price",
          "type": "uint256"
        },
        {
          "internalType": "address[]",
          "name": "_whiteAddresses",
          "type": "address[]"
        }
      ],
      "name": "reSale",
      "outputs": [],
      "stateMutability": "nonpayable",
      "type": "function"
    }
  ],
  "bytecode": "0x60806040526004805462ffffff1916620100001790553480156200002257600080fd5b5060405162000e3938038062000e39833981016040819052620000459162000354565b60008054336001600160a01b031991821617909155600180549091166001600160a01b0386161790556003839055815162000088906002906020850190620001b9565b506004805460ff1916905560005b8151811015620000e257620000cd828281518110620000b957620000b96200045a565b6020026020010151620000ed60201b60201c565b80620000d98162000470565b91505062000096565b5050505050620004d7565b6000546001600160a01b03163314806200011157506001546001600160a01b031633145b6200011b57600080fd5b6001600160a01b03811660009081526005602052604090205460ff1615620001955760405162461bcd60e51b8152602060048201526024808201527f74686973206164647265737320697320616c7265616479207768697465206c696044820152631cdd195960e21b606482015260840160405180910390fd5b6001600160a01b03166000908152600560205260409020805460ff19166001179055565b828054620001c7906200049a565b90600052602060002090601f016020900481019282620001eb576000855562000236565b82601f106200020657805160ff191683800117855562000236565b8280016001018555821562000236579182015b828111156200023657825182559160200191906001019062000219565b506200024492915062000248565b5090565b5b8082111562000244576000815560010162000249565b6001600160a01b03811681146200027557600080fd5b50565b634e487b7160e01b600052604160045260246000fd5b604051601f8201601f191681016001600160401b0381118282101715620002b957620002b962000278565b604052919050565b600082601f830112620002d357600080fd5b815160206001600160401b03821115620002f157620002f162000278565b8160051b620003028282016200028e565b92835284810182019282810190878511156200031d57600080fd5b83870192505b848310156200034957825162000339816200025f565b8252918301919083019062000323565b979650505050505050565b600080600080608085870312156200036b57600080fd5b845162000378816200025f565b60208681015160408801519296509450906001600160401b03808211156200039f57600080fd5b818801915088601f830112620003b457600080fd5b815181811115620003c957620003c962000278565b620003dd601f8201601f191685016200028e565b8181528a85838601011115620003f257600080fd5b60005b8281101562000412578481018601518282018701528501620003f5565b82811115620004245760008684840101525b5060608a0151909650935050808311156200043e57600080fd5b50506200044e87828801620002c1565b91505092959194509250565b634e487b7160e01b600052603260045260246000fd5b60006000198214156200049357634e487b7160e01b600052601160045260246000fd5b5060010190565b600181811c90821680620004af57607f821691505b60208210811415620004d157634e487b7160e01b600052602260045260246000fd5b50919050565b61095280620004e76000396000f3fe6080604052600436106100dd5760003560e01c80639244f4961161007f578063a2b40d1911610059578063a2b40d1914610238578063f446c38f14610258578063fcb2cafc14610278578063ff895a62146102b157600080fd5b80639244f496146101d457806397190ba1146101f4578063a035b1fe1461021457600080fd5b80634bb01abb116100bb5780634bb01abb1461013b5780635c975abb1461015b5780638a2c8a511461017a5780638da5cb5b1461019c57600080fd5b8063186601ca146100e257806334976b9b14610117578063451a308f14610131575b600080fd5b3480156100ee57600080fd5b506004546101029062010000900460ff1681565b60405190151581526020015b60405180910390f35b34801561012357600080fd5b506004546101029060ff1681565b6101396102c6565b005b34801561014757600080fd5b5061013961015636600461072b565b610451565b34801561016757600080fd5b5060045461010290610100900460ff1681565b34801561018657600080fd5b5061018f61049e565b60405161010e919061074d565b3480156101a857600080fd5b506000546101bc906001600160a01b031681565b6040516001600160a01b03909116815260200161010e565b3480156101e057600080fd5b506101396101ef36600461072b565b61052c565b34801561020057600080fd5b5061013961020f3660046107b8565b6105f1565b34801561022057600080fd5b5061022a60035481565b60405190815260200161010e565b34801561024457600080fd5b50610139610253366004610889565b6106b4565b34801561026457600080fd5b506001546101bc906001600160a01b031681565b34801561028457600080fd5b5061010261029336600461072b565b6001600160a01b031660009081526005602052604090205460ff1690565b3480156102bd57600080fd5b506101396106ea565b3360008181526005602052604090205460ff1661032a5760405162461bcd60e51b815260206004820152601a60248201527f596f75206e65656420746f2062652077686974656c697374656400000000000060448201526064015b60405180910390fd5b60045462010000900460ff16151560011461034457600080fd5b3460035411156103965760405162461bcd60e51b815260206004820152601f60248201527f6e6f7420656e6f75676820746f2062757920746869732070726f7065727479006044820152606401610321565b600454610100900460ff16156103ab57600080fd5b6001546040516001600160a01b03909116903480156108fc02916000818181858888f193505050501580156103e4573d6000803e3d6000fd5b50600154604080516001600160a01b0390921682523360208301523482820152517fe98ef6adc403df0ffb0dbdd06534bc3d0705f580a6043f32dd7e68e8130c78119181900360600190a150600180546001600160a01b031916331781556004805460ff19169091179055565b6000546001600160a01b031633148061047457506001546001600160a01b031633145b61047d57600080fd5b6001600160a01b03166000908152600560205260409020805460ff19169055565b600280546104ab906108a2565b80601f01602080910402602001604051908101604052809291908181526020018280546104d7906108a2565b80156105245780601f106104f957610100808354040283529160200191610524565b820191906000526020600020905b81548152906001019060200180831161050757829003601f168201915b505050505081565b6000546001600160a01b031633148061054f57506001546001600160a01b031633145b61055857600080fd5b6001600160a01b03811660009081526005602052604090205460ff16156105cd5760405162461bcd60e51b8152602060048201526024808201527f74686973206164647265737320697320616c7265616479207768697465206c696044820152631cdd195960e21b6064820152608401610321565b6001600160a01b03166000908152600560205260409020805460ff19166001179055565b60045460ff16151560011461060557600080fd5b6000546001600160a01b031633148061062857506001546001600160a01b031633145b61063157600080fd5b60045462010000900460ff16151560011461064b57600080fd5b600454610100900460ff161561066057600080fd5b600382905560005b81518110156106a557610693828281518110610686576106866108dd565b602002602001015161052c565b8061069d816108f3565b915050610668565b50506004805460ff1916905550565b60045462010000900460ff1615156001146106ce57600080fd5b6001546001600160a01b031633146106e557600080fd5b600355565b6001546001600160a01b0316331461070157600080fd5b6004805462ff000019169055565b80356001600160a01b038116811461072657600080fd5b919050565b60006020828403121561073d57600080fd5b6107468261070f565b9392505050565b600060208083528351808285015260005b8181101561077a5785810183015185820160400152820161075e565b8181111561078c576000604083870101525b50601f01601f1916929092016040019392505050565b634e487b7160e01b600052604160045260246000fd5b600080604083850312156107cb57600080fd5b8235915060208084013567ffffffffffffffff808211156107eb57600080fd5b818601915086601f8301126107ff57600080fd5b813581811115610811576108116107a2565b8060051b604051601f19603f83011681018181108582111715610836576108366107a2565b60405291825284820192508381018501918983111561085457600080fd5b938501935b828510156108795761086a8561070f565b84529385019392850192610859565b8096505050505050509250929050565b60006020828403121561089b57600080fd5b5035919050565b600181811c908216806108b657607f821691505b602082108114156108d757634e487b7160e01b600052602260045260246000fd5b50919050565b634e487b7160e01b600052603260045260246000fd5b600060001982141561091557634e487b7160e01b600052601160045260246000fd5b506001019056fea2646970667358221220d6329ea64b1d2fc4a3ac8756d677b8a7ff18a5a66158025018a83e905ff4f99664736f6c634300080a0033",
  "immutableReferences": {},
  "source": "pragma solidity ^0.8.10;\r\n\r\ncontract WhiteListeContract { \r\n\r\n    address public owner;   // us :D\r\n\r\n    address public propertyOwner;\r\n\r\n    string public propertyCode;\r\n\r\n    uint256 public price;\r\n\r\n    bool public bought = false;\r\n    bool public paused = false;\r\n    bool public activated = true;\r\n\r\n    mapping(address => bool) whiteListedAddresses;\r\n\r\n    event propertyBought(address from,address to,uint256 price);\r\n\r\n    constructor(address payable _propertyOwner,uint256 _price,string memory _propertyCode,address []memory _whiteAddresses){\r\n        owner = msg.sender;\r\n        propertyOwner = _propertyOwner;\r\n        price = _price;\r\n        propertyCode = _propertyCode;\r\n        bought = false;\r\n        for(uint i =0;i<_whiteAddresses.length;i++){\r\n            addAddressToWhiteList(_whiteAddresses[i]);\r\n        }\r\n    }\r\n\r\n    modifier  onlyPropertyOwner{\r\n        require(\r\n            propertyOwner == msg.sender\r\n           );\r\n        _;\r\n    }\r\n    \r\n\r\n    modifier  buyRequirement{\r\n        require(\r\n            price <= msg.value,\r\n            \"not enough to buy this property\"\r\n            );\r\n        _;\r\n    }\r\n\r\n    modifier  notPaused(){\r\n        require(\r\n            paused == false\r\n            );\r\n        _;\r\n    }\r\n\r\n    modifier isActivated() {\r\n        require(\r\n            activated == true\r\n        );\r\n        _;\r\n    }\r\n\r\n    modifier onlyOwner(){\r\n        require(\r\n            owner == msg.sender\r\n        );\r\n        _;\r\n    }\r\n\r\n    modifier ownerOrPropertyOwner(){\r\n        require(\r\n            msg.sender == owner || msg.sender == propertyOwner\r\n        );\r\n        _;\r\n    }\r\n\r\n    modifier canReSale(){\r\n        require(\r\n            bought == true\r\n        );\r\n        _;\r\n    }\r\n\r\n\r\n    function changePrice(uint256 _price) isActivated onlyPropertyOwner public{\r\n        price = _price ;\r\n    }\r\n\r\n     modifier isWhitelisted(address _address) {\r\n        require(whiteListedAddresses[_address], \"You need to be whitelisted\");\r\n        _;\r\n    }\r\n\r\n    function addAddressToWhiteList(address _whiteListedAddresses) public ownerOrPropertyOwner {\r\n        require(whiteListedAddresses[_whiteListedAddresses] == false , \"this address is already white listed\");\r\n        whiteListedAddresses[_whiteListedAddresses] = true;\r\n    }\r\n\r\n    function removeAddressFromWhiteList(address _whiteListedAddresse) public ownerOrPropertyOwner{\r\n        delete whiteListedAddresses[_whiteListedAddresse];\r\n    }\r\n\r\n    function verifyAddress(address _whiteListedAddresses) public view returns(bool) {\r\n        bool addressIsWhitelisted = whiteListedAddresses[_whiteListedAddresses];\r\n        return addressIsWhitelisted;\r\n    }\r\n\r\n\r\n\r\n    function buyProperty() payable public isWhitelisted(msg.sender) isActivated buyRequirement notPaused {\r\n        payable(propertyOwner).transfer(msg.value);\r\n        \r\n        emit propertyBought(propertyOwner, msg.sender, msg.value);\r\n        \r\n        propertyOwner = msg.sender;\r\n        bought = true;\r\n    }\r\n\r\n\r\n    function deActivate() public onlyPropertyOwner {\r\n        activated = false;\r\n    }\r\n\r\n    // function to resale property\r\n    function reSale(uint256 _price,address []memory _whiteAddresses) public canReSale ownerOrPropertyOwner isActivated notPaused{\r\n        \r\n        price = _price;\r\n        for(uint i =0;i<_whiteAddresses.length;i++){\r\n            addAddressToWhiteList(_whiteAddresses[i]);\r\n        }\r\n        bought = false;\r\n    }\r\n    \r\n}",
  "sourcePath": "C:\\Users\\dell\\Desktop\\OverChain-Contracts\\Overchain-Contracts\\contracts\\WhiteListed.sol",
  "compiler": {
    "name": "solc",
    "version": "0.8.10+commit.fc410830.Emscripten.clang"
  },
  "schemaVersion": "3.4.4",
  "updatedAt": "2022-01-12T00:48:48.650Z",
  "devdoc": {
    "kind": "dev",
    "methods": {},
    "version": 1
  },
  "userdoc": {
    "kind": "user",
    "methods": {},
    "version": 1
  }
}