{
  "contractName": "WhiteListeContract",
  "abi": [
    {
      "inputs": [
        {
          "internalType": "address payable",
          "name": "_propertyOwner",
          "type": "address"
        },
        {
          "internalType": "uint256",
          "name": "_price",
          "type": "uint256"
        },
        {
          "internalType": "string",
          "name": "_propertyCode",
          "type": "string"
        },
        {
          "internalType": "address[]",
          "name": "_whiteAddresses",
          "type": "address[]"
        }
      ],
      "stateMutability": "nonpayable",
      "type": "constructor"
    },
    {
      "anonymous": false,
      "inputs": [
        {
          "indexed": false,
          "internalType": "address",
          "name": "from",
          "type": "address"
        },
        {
          "indexed": false,
          "internalType": "address",
          "name": "to",
          "type": "address"
        },
        {
          "indexed": false,
          "internalType": "uint256",
          "name": "price",
          "type": "uint256"
        }
      ],
      "name": "propertyBought",
      "type": "event"
    },
    {
      "inputs": [],
      "name": "activated",
      "outputs": [
        {
          "internalType": "bool",
          "name": "",
          "type": "bool"
        }
      ],
      "stateMutability": "view",
      "type": "function"
    },
    {
      "inputs": [],
      "name": "bought",
      "outputs": [
        {
          "internalType": "bool",
          "name": "",
          "type": "bool"
        }
      ],
      "stateMutability": "view",
      "type": "function"
    },
    {
      "inputs": [],
      "name": "owner",
      "outputs": [
        {
          "internalType": "address",
          "name": "",
          "type": "address"
        }
      ],
      "stateMutability": "view",
      "type": "function"
    },
    {
      "inputs": [],
      "name": "paused",
      "outputs": [
        {
          "internalType": "bool",
          "name": "",
          "type": "bool"
        }
      ],
      "stateMutability": "view",
      "type": "function"
    },
    {
      "inputs": [],
      "name": "price",
      "outputs": [
        {
          "internalType": "uint256",
          "name": "",
          "type": "uint256"
        }
      ],
      "stateMutability": "view",
      "type": "function"
    },
    {
      "inputs": [],
      "name": "propertyCode",
      "outputs": [
        {
          "internalType": "string",
          "name": "",
          "type": "string"
        }
      ],
      "stateMutability": "view",
      "type": "function"
    },
    {
      "inputs": [],
      "name": "propertyOwner",
      "outputs": [
        {
          "internalType": "address",
          "name": "",
          "type": "address"
        }
      ],
      "stateMutability": "view",
      "type": "function"
    },
    {
      "inputs": [
        {
          "internalType": "address",
          "name": "",
          "type": "address"
        }
      ],
      "name": "whiteListedAddresses",
      "outputs": [
        {
          "internalType": "bool",
          "name": "",
          "type": "bool"
        }
      ],
      "stateMutability": "view",
      "type": "function"
    },
    {
      "inputs": [
        {
          "internalType": "uint256",
          "name": "_price",
          "type": "uint256"
        }
      ],
      "name": "changePrice",
      "outputs": [],
      "stateMutability": "nonpayable",
      "type": "function"
    },
    {
      "inputs": [
        {
          "internalType": "address",
          "name": "_whiteListedAddresses",
          "type": "address"
        }
      ],
      "name": "addAddressToWhiteList",
      "outputs": [],
      "stateMutability": "nonpayable",
      "type": "function"
    },
    {
      "inputs": [
        {
          "internalType": "address",
          "name": "_whiteListedAddresse",
          "type": "address"
        }
      ],
      "name": "removeAddressFromWhiteList",
      "outputs": [],
      "stateMutability": "nonpayable",
      "type": "function"
    },
    {
      "inputs": [
        {
          "internalType": "address",
          "name": "_whiteListedAddresses",
          "type": "address"
        }
      ],
      "name": "verifyAddress",
      "outputs": [
        {
          "internalType": "bool",
          "name": "",
          "type": "bool"
        }
      ],
      "stateMutability": "view",
      "type": "function"
    },
    {
      "inputs": [],
      "name": "buyProperty",
      "outputs": [],
      "stateMutability": "payable",
      "type": "function"
    },
    {
      "inputs": [],
      "name": "deActivate",
      "outputs": [],
      "stateMutability": "nonpayable",
      "type": "function"
    },
    {
      "inputs": [],
      "name": "Pause",
      "outputs": [],
      "stateMutability": "nonpayable",
      "type": "function"
    },
    {
      "inputs": [],
      "name": "UnPause",
      "outputs": [],
      "stateMutability": "nonpayable",
      "type": "function"
    },
    {
      "inputs": [
        {
          "internalType": "uint256",
          "name": "_price",
          "type": "uint256"
        },
        {
          "internalType": "address[]",
          "name": "_whiteAddresses",
          "type": "address[]"
        }
      ],
      "name": "reSale",
      "outputs": [],
      "stateMutability": "nonpayable",
      "type": "function"
    }
  ],
  "bytecode": "0x60806040526004805462ffffff1916620100001790553480156200002257600080fd5b5060405162000f0038038062000f00833981016040819052620000459162000354565b60008054336001600160a01b031991821617909155600180549091166001600160a01b0386161790556003839055815162000088906002906020850190620001b9565b506004805460ff1916905560005b8151811015620000e257620000cd828281518110620000b957620000b96200045a565b6020026020010151620000ed60201b60201c565b80620000d98162000470565b91505062000096565b5050505050620004d7565b6000546001600160a01b03163314806200011157506001546001600160a01b031633145b6200011b57600080fd5b6001600160a01b03811660009081526005602052604090205460ff1615620001955760405162461bcd60e51b8152602060048201526024808201527f74686973206164647265737320697320616c7265616479207768697465206c696044820152631cdd195960e21b606482015260840160405180910390fd5b6001600160a01b03166000908152600560205260409020805460ff19166001179055565b828054620001c7906200049a565b90600052602060002090601f016020900481019282620001eb576000855562000236565b82601f106200020657805160ff191683800117855562000236565b8280016001018555821562000236579182015b828111156200023657825182559160200191906001019062000219565b506200024492915062000248565b5090565b5b8082111562000244576000815560010162000249565b6001600160a01b03811681146200027557600080fd5b50565b634e487b7160e01b600052604160045260246000fd5b604051601f8201601f191681016001600160401b0381118282101715620002b957620002b962000278565b604052919050565b600082601f830112620002d357600080fd5b815160206001600160401b03821115620002f157620002f162000278565b8160051b620003028282016200028e565b92835284810182019282810190878511156200031d57600080fd5b83870192505b848310156200034957825162000339816200025f565b8252918301919083019062000323565b979650505050505050565b600080600080608085870312156200036b57600080fd5b845162000378816200025f565b60208681015160408801519296509450906001600160401b03808211156200039f57600080fd5b818801915088601f830112620003b457600080fd5b815181811115620003c957620003c962000278565b620003dd601f8201601f191685016200028e565b8181528a85838601011115620003f257600080fd5b60005b8281101562000412578481018601518282018701528501620003f5565b82811115620004245760008684840101525b5060608a0151909650935050808311156200043e57600080fd5b50506200044e87828801620002c1565b91505092959194509250565b634e487b7160e01b600052603260045260246000fd5b60006000198214156200049357634e487b7160e01b600052601160045260246000fd5b5060010190565b600181811c90821680620004af57607f821691505b60208210811415620004d157634e487b7160e01b600052602260045260246000fd5b50919050565b610a1980620004e76000396000f3fe6080604052600436106100fe5760003560e01c80638da5cb5b11610095578063a2b40d1911610064578063a2b40d1914610283578063d8e773a2146102a3578063f446c38f146102d3578063fcb2cafc146102f3578063ff895a621461032c57600080fd5b80638da5cb5b146101e75780639244f4961461021f57806397190ba11461023f578063a035b1fe1461025f57600080fd5b80634bb01abb116100d15780634bb01abb146101715780635c975abb146101915780636985a022146101b05780638a2c8a51146101c557600080fd5b8063186601ca1461010357806334976b9b14610138578063438cd2d314610152578063451a308f14610169575b600080fd5b34801561010f57600080fd5b506004546101239062010000900460ff1681565b60405190151581526020015b60405180910390f35b34801561014457600080fd5b506004546101239060ff1681565b34801561015e57600080fd5b50610167610341565b005b610167610365565b34801561017d57600080fd5b5061016761018c3660046107f2565b6104f0565b34801561019d57600080fd5b5060045461012390610100900460ff1681565b3480156101bc57600080fd5b5061016761053d565b3480156101d157600080fd5b506101da610565565b60405161012f9190610814565b3480156101f357600080fd5b50600054610207906001600160a01b031681565b6040516001600160a01b03909116815260200161012f565b34801561022b57600080fd5b5061016761023a3660046107f2565b6105f3565b34801561024b57600080fd5b5061016761025a36600461087f565b6106b8565b34801561026b57600080fd5b5061027560035481565b60405190815260200161012f565b34801561028f57600080fd5b5061016761029e366004610950565b61077b565b3480156102af57600080fd5b506101236102be3660046107f2565b60056020526000908152604090205460ff1681565b3480156102df57600080fd5b50600154610207906001600160a01b031681565b3480156102ff57600080fd5b5061012361030e3660046107f2565b6001600160a01b031660009081526005602052604090205460ff1690565b34801561033857600080fd5b506101676107b1565b6001546001600160a01b0316331461035857600080fd5b6004805461ff0019169055565b3360008181526005602052604090205460ff166103c95760405162461bcd60e51b815260206004820152601a60248201527f596f75206e65656420746f2062652077686974656c697374656400000000000060448201526064015b60405180910390fd5b60045462010000900460ff1615156001146103e357600080fd5b3460035411156104355760405162461bcd60e51b815260206004820152601f60248201527f6e6f7420656e6f75676820746f2062757920746869732070726f70657274790060448201526064016103c0565b600454610100900460ff161561044a57600080fd5b6001546040516001600160a01b03909116903480156108fc02916000818181858888f19350505050158015610483573d6000803e3d6000fd5b50600154604080516001600160a01b0390921682523360208301523482820152517fe98ef6adc403df0ffb0dbdd06534bc3d0705f580a6043f32dd7e68e8130c78119181900360600190a150600180546001600160a01b031916331781556004805460ff19169091179055565b6000546001600160a01b031633148061051357506001546001600160a01b031633145b61051c57600080fd5b6001600160a01b03166000908152600560205260409020805460ff19169055565b6001546001600160a01b0316331461055457600080fd5b6004805461ff001916610100179055565b6002805461057290610969565b80601f016020809104026020016040519081016040528092919081815260200182805461059e90610969565b80156105eb5780601f106105c0576101008083540402835291602001916105eb565b820191906000526020600020905b8154815290600101906020018083116105ce57829003601f168201915b505050505081565b6000546001600160a01b031633148061061657506001546001600160a01b031633145b61061f57600080fd5b6001600160a01b03811660009081526005602052604090205460ff16156106945760405162461bcd60e51b8152602060048201526024808201527f74686973206164647265737320697320616c7265616479207768697465206c696044820152631cdd195960e21b60648201526084016103c0565b6001600160a01b03166000908152600560205260409020805460ff19166001179055565b60045460ff1615156001146106cc57600080fd5b6000546001600160a01b03163314806106ef57506001546001600160a01b031633145b6106f857600080fd5b60045462010000900460ff16151560011461071257600080fd5b600454610100900460ff161561072757600080fd5b600382905560005b815181101561076c5761075a82828151811061074d5761074d6109a4565b60200260200101516105f3565b80610764816109ba565b91505061072f565b50506004805460ff1916905550565b60045462010000900460ff16151560011461079557600080fd5b6001546001600160a01b031633146107ac57600080fd5b600355565b6001546001600160a01b031633146107c857600080fd5b6004805462ff000019169055565b80356001600160a01b03811681146107ed57600080fd5b919050565b60006020828403121561080457600080fd5b61080d826107d6565b9392505050565b600060208083528351808285015260005b8181101561084157858101830151858201604001528201610825565b81811115610853576000604083870101525b50601f01601f1916929092016040019392505050565b634e487b7160e01b600052604160045260246000fd5b6000806040838503121561089257600080fd5b8235915060208084013567ffffffffffffffff808211156108b257600080fd5b818601915086601f8301126108c657600080fd5b8135818111156108d8576108d8610869565b8060051b604051601f19603f830116810181811085821117156108fd576108fd610869565b60405291825284820192508381018501918983111561091b57600080fd5b938501935b8285101561094057610931856107d6565b84529385019392850192610920565b8096505050505050509250929050565b60006020828403121561096257600080fd5b5035919050565b600181811c9082168061097d57607f821691505b6020821081141561099e57634e487b7160e01b600052602260045260246000fd5b50919050565b634e487b7160e01b600052603260045260246000fd5b60006000198214156109dc57634e487b7160e01b600052601160045260246000fd5b506001019056fea264697066735822122029389fdfa66426bb9d64e7defb2a3383bfedd49237fd9c3d13aca6f444da916f64736f6c634300080a0033",
  "immutableReferences": {},
  "source": "pragma solidity ^0.8.10;\r\n\r\ncontract WhiteListeContract { \r\n\r\n    address public owner;   // us :D\r\n\r\n    address public propertyOwner;\r\n\r\n    string public propertyCode;\r\n\r\n    uint256 public price;\r\n\r\n    bool public bought = false;\r\n    bool public paused = false;\r\n    bool public activated = true;\r\n\r\n    mapping(address => bool) public whiteListedAddresses;\r\n\r\n    event propertyBought(address from,address to,uint256 price);\r\n\r\n    constructor(address payable _propertyOwner,uint256 _price,string memory _propertyCode,address []memory _whiteAddresses){\r\n        owner = msg.sender;\r\n        propertyOwner = _propertyOwner;\r\n        price = _price;\r\n        propertyCode = _propertyCode;\r\n        bought = false;\r\n        for(uint i =0;i<_whiteAddresses.length;i++){\r\n            addAddressToWhiteList(_whiteAddresses[i]);\r\n        }\r\n    }\r\n\r\n    modifier  onlyPropertyOwner{\r\n        require(\r\n            propertyOwner == msg.sender\r\n           );\r\n        _;\r\n    }\r\n    \r\n    modifier ownerOrPropertyOwner(){\r\n        require(\r\n            msg.sender == owner || msg.sender == propertyOwner\r\n        );\r\n        _;\r\n    }\r\n\r\n    modifier  buyRequirement{\r\n        require(\r\n            price <= msg.value,\r\n            \"not enough to buy this property\"\r\n            );\r\n        _;\r\n    }\r\n\r\n    modifier  notPaused(){\r\n        require(\r\n            paused == false\r\n            );\r\n        _;\r\n    }\r\n\r\n    modifier isActivated() {\r\n        require(\r\n            activated == true\r\n        );\r\n        _;\r\n    }\r\n\r\n    modifier onlyOwner(){\r\n        require(\r\n            owner == msg.sender\r\n        );\r\n        _;\r\n    }\r\n\r\n    modifier canReSale(){\r\n        require(\r\n            bought == true\r\n        );\r\n        _;\r\n    }\r\n\r\n\r\n    function changePrice(uint256 _price) isActivated onlyPropertyOwner public{\r\n        price = _price ;\r\n    }\r\n\r\n     modifier isWhitelisted(address _address) {\r\n        require(whiteListedAddresses[_address], \"You need to be whitelisted\");\r\n        _;\r\n    }\r\n\r\n    function addAddressToWhiteList(address _whiteListedAddresses) public ownerOrPropertyOwner {\r\n        require(whiteListedAddresses[_whiteListedAddresses] == false , \"this address is already white listed\");\r\n        whiteListedAddresses[_whiteListedAddresses] = true;\r\n    }\r\n\r\n    function removeAddressFromWhiteList(address _whiteListedAddresse) public ownerOrPropertyOwner{\r\n        delete whiteListedAddresses[_whiteListedAddresse];\r\n    }\r\n\r\n    function verifyAddress(address _whiteListedAddresses) public view returns(bool) {\r\n        bool addressIsWhitelisted = whiteListedAddresses[_whiteListedAddresses];\r\n        return addressIsWhitelisted;\r\n    }\r\n\r\n\r\n\r\n    function buyProperty() payable public isWhitelisted(msg.sender) isActivated buyRequirement notPaused {\r\n        payable(propertyOwner).transfer(msg.value);\r\n        \r\n        emit propertyBought(propertyOwner, msg.sender, msg.value);\r\n        \r\n        propertyOwner = msg.sender;\r\n        bought = true;\r\n    }\r\n\r\n\r\n    function deActivate() public onlyPropertyOwner {\r\n        activated = false;\r\n    }\r\n\r\n    function Pause() public onlyPropertyOwner {\r\n        paused = true;\r\n    }\r\n\r\n    function UnPause()public onlyPropertyOwner{\r\n        paused = false ; \r\n    }\r\n\r\n    // function to resale property\r\n    function reSale(uint256 _price,address []memory _whiteAddresses) public canReSale ownerOrPropertyOwner isActivated notPaused{\r\n        \r\n        price = _price;\r\n        for(uint i =0;i<_whiteAddresses.length;i++){\r\n            addAddressToWhiteList(_whiteAddresses[i]);\r\n        }\r\n        bought = false;\r\n    }\r\n    \r\n}",
  "sourcePath": "C:\\Users\\dell\\Desktop\\OverChain-Contracts\\Overchain-Contracts\\contracts\\WhiteListed.sol",
  "compiler": {
    "name": "solc",
    "version": "0.8.10+commit.fc410830.Emscripten.clang"
  },
  "schemaVersion": "3.4.4",
  "updatedAt": "2022-02-02T02:06:12.558Z",
  "devdoc": {
    "kind": "dev",
    "methods": {},
    "version": 1
  },
  "userdoc": {
    "kind": "user",
    "methods": {},
    "version": 1
  }
}